Component: ARM Compiler 5.06 update 3 (build 300) Tool: armlink [4d35c9]

==============================================================================

Section Cross References

    system_stm32f10x.o(i.SetSysClock) refers to system_stm32f10x.o(i.SetSysClockTo72) for SetSysClockTo72
    system_stm32f10x.o(i.SystemCoreClockUpdate) refers to system_stm32f10x.o(.data) for SystemCoreClock
    system_stm32f10x.o(i.SystemInit) refers to system_stm32f10x.o(i.SetSysClock) for SetSysClock
    startup_stm32f10x_hd.o(RESET) refers to startup_stm32f10x_hd.o(STACK) for __initial_sp
    startup_stm32f10x_hd.o(RESET) refers to startup_stm32f10x_hd.o(.text) for Reset_Handler
    startup_stm32f10x_hd.o(RESET) refers to stm32f10x_it.o(i.NMI_Handler) for NMI_Handler
    startup_stm32f10x_hd.o(RESET) refers to stm32f10x_it.o(i.HardFault_Handler) for HardFault_Handler
    startup_stm32f10x_hd.o(RESET) refers to stm32f10x_it.o(i.MemManage_Handler) for MemManage_Handler
    startup_stm32f10x_hd.o(RESET) refers to stm32f10x_it.o(i.BusFault_Handler) for BusFault_Handler
    startup_stm32f10x_hd.o(RESET) refers to stm32f10x_it.o(i.UsageFault_Handler) for UsageFault_Handler
    startup_stm32f10x_hd.o(RESET) refers to stm32f10x_it.o(i.SVC_Handler) for SVC_Handler
    startup_stm32f10x_hd.o(RESET) refers to stm32f10x_it.o(i.DebugMon_Handler) for DebugMon_Handler
    startup_stm32f10x_hd.o(RESET) refers to stm32f10x_it.o(i.PendSV_Handler) for PendSV_Handler
    startup_stm32f10x_hd.o(RESET) refers to stm32f10x_it.o(i.SysTick_Handler) for SysTick_Handler
    startup_stm32f10x_hd.o(RESET) refers to stm32f10x_it.o(i.TIM4_IRQHandler) for TIM4_IRQHandler
    startup_stm32f10x_hd.o(RESET) refers to usart.o(i.USART1_IRQHandler) for USART1_IRQHandler
    startup_stm32f10x_hd.o(RESET) refers to usart.o(i.UART4_IRQHandler) for UART4_IRQHandler
    startup_stm32f10x_hd.o(.text) refers to system_stm32f10x.o(i.SystemInit) for SystemInit
==============================================================================

Removing Unused input sections from the image.

    Removing core_cm3.o(.emb_text), (32 bytes).
    Removing system_stm32f10x.o(i.SystemCoreClockUpdate), (164 bytes).
    Removing system_stm32f10x.o(.data), (20 bytes).
    Removing startup_stm32f10x_hd.o(HEAP), (512 bytes).
    Removing misc.o(i.NVIC_PriorityGroupConfig), (20 bytes).
    Removing misc.o(i.NVIC_SetVectorTable), (20 bytes).
    Removing misc.o(i.NVIC_SystemLPConfig), (32 bytes).
    Removing misc.o(i.SysTick_CLKSourceConfig), (40 bytes).
    Removing stm32f10x_adc.o(i.ADC_AnalogWatchdogCmd), (20 bytes).
    Removing stm32f10x_adc.o(i.ADC_AnalogWatchdogSingleChannelConfig), (16 bytes).
    Removing stm32f10x_adc.o(i.ADC_AnalogWatchdogThresholdsConfig), (6 bytes).
    Removing stm32f10x_adc.o(i.ADC_AutoInjectedConvCmd), (22 bytes).
    Removing stm32f10x_adc.o(i.ADC_ClearFlag), (6 bytes).
    Removing stm32f10x_adc.o(i.ADC_ClearITPendingBit), (10 bytes).
    Removing stm32f10x_adc.o(i.ADC_Cmd), (22 bytes).
    Removing stm32f10x_adc.o(i.ADC_DMACmd), (22 bytes).
    Removing stm32f10x_adc.o(i.ADC_DeInit), (92 bytes).
    Removing stm32f10x_adc.o(i.ADC_DiscModeChannelCountConfig), (24 bytes).
==============================================================================

Image Symbol Table

    Local Symbols

    Symbol Name                              Value     Ov Type        Size  Object(Section)

    ../clib/../cmprslib/zerorunl2.c          0x00000000   Number         0  __dczerorl2.o ABSOLUTE
    ../clib/microlib/division.c              0x00000000   Number         0  uidiv.o ABSOLUTE
    ../clib/microlib/division.c              0x00000000   Number         0  uldiv.o ABSOLUTE
    ../clib/microlib/errno.c                 0x00000000   Number         0  errno.o ABSOLUTE
    ../clib/microlib/init/entry.s            0x00000000   Number         0  entry8a.o ABSOLUTE
    ../clib/microlib/init/entry.s            0x00000000   Number         0  entry10b.o ABSOLUTE
    ../clib/microlib/init/entry.s            0x00000000   Number         0  entry11a.o ABSOLUTE
    ../clib/microlib/init/entry.s            0x00000000   Number         0  entry11b.o ABSOLUTE
    ../clib/microlib/init/entry.s            0x00000000   Number         0  entry9a.o ABSOLUTE
    ../clib/microlib/init/entry.s            0x00000000   Number         0  entry8b.o ABSOLUTE
    ../clib/microlib/init/entry.s            0x00000000   Number         0  entry5.o ABSOLUTE
    ../clib/microlib/init/entry.s            0x00000000   Number         0  entry7a.o ABSOLUTE
    ../clib/microlib/init/entry.s            0x00000000   Number         0  entry7b.o ABSOLUTE
    ../clib/microlib/init/entry.s            0x00000000   Number         0  entry2.o ABSOLUTE
    ../clib/microlib/init/entry.s            0x00000000   Number         0  entry9b.o ABSOLUTE
    ../clib/microlib/init/entry.s            0x00000000   Number         0  entry10a.o ABSOLUTE
    ../clib/microlib/init/entry.s            0x00000000   Number         0  entry.o ABSOLUTE
    ../clib/microlib/longlong.c              0x00000000   Number         0  llsshr.o ABSOLUTE
    ../clib/microlib/longlong.c              0x00000000   Number         0  llshl.o ABSOLUTE
    ../clib/microlib/longlong.c              0x00000000   Number         0  llushr.o ABSOLUTE
    ../clib/microlib/printf/printf.c         0x00000000   Number         0  printf8.o ABSOLUTE
    ../clib/microlib/printf/printf.c         0x00000000   Number         0  printf1.o ABSOLUTE
    ../clib/microlib/printf/printf.c         0x00000000   Number         0  printf4.o ABSOLUTE
    ../clib/microlib/printf/printf.c         0x00000000   Number         0  printf3.o ABSOLUTE
    ../clib/microlib/printf/printf.c         0x00000000   Number         0  printf5.o ABSOLUTE
    ../clib/microlib/printf/printf.c         0x00000000   Number         0  printf2.o ABSOLUTE
    ../clib/microlib/printf/printf.c         0x00000000   Number         0  printf6.o ABSOLUTE
    ../clib/microlib/printf/printf.c         0x00000000   Number         0  printf7.o ABSOLUTE
    ../clib/microlib/printf/printf.c         0x00000000   Number         0  printfa.o ABSOLUTE
    ../clib/microlib/printf/printf.c         0x00000000   Number         0  printf0.o ABSOLUTE
    ../clib/microlib/printf/printf.c         0x00000000   Number         0  printfb.o ABSOLUTE
    ../clib/microlib/printf/stubs.s          0x00000000   Number         0  stubs.o ABSOLUTE
    ../clib/microlib/stubs.s                 0x00000000   Number         0  iusefp.o ABSOLUTE
    ../clib/microlib/stubs.s                 0x00000000   Number         0  useno.o ABSOLUTE
    ../fplib/microlib/d2f.c                  0x00000000   Number         0  d2f.o ABSOLUTE
    ../fplib/microlib/f2d.c                  0x00000000   Number         0  f2d.o ABSOLUTE
    ../fplib/microlib/fpadd.c                0x00000000   Number         0  fadd.o ABSOLUTE
    ../fplib/microlib/fpadd.c                0x00000000   Number         0  dadd.o ABSOLUTE
    ../fplib/microlib/fpdiv.c                0x00000000   Number         0  fdiv.o ABSOLUTE
    ../fplib/microlib/fpdiv.c                0x00000000   Number         0  ddiv.o ABSOLUTE
    ../fplib/microlib/fpepilogue.c           0x00000000   Number         0  fepilogue.o ABSOLUTE
    ../fplib/microlib/fpepilogue.c           0x00000000   Number         0  depilogue.o ABSOLUTE
    ../fplib/microlib/fpfix.c                0x00000000   Number         0  dfixi.o ABSOLUTE
    ../fplib/microlib/fpfix.c                0x00000000   Number         0  dfixui.o ABSOLUTE
    ../fplib/microlib/fpfix.c                0x00000000   Number         0  ffixui.o ABSOLUTE
    ../fplib/microlib/fpfix.c                0x00000000   Number         0  ffixi.o ABSOLUTE
    ../fplib/microlib/fpfix.c                0x00000000   Number         0  dfixul.o ABSOLUTE
    ../fplib/microlib/fpflt.c                0x00000000   Number         0  dfltui.o ABSOLUTE
    ../fplib/microlib/fpflt.c                0x00000000   Number         0  dflti.o ABSOLUTE
    ../fplib/microlib/fpflt.c                0x00000000   Number         0  ffltui.o ABSOLUTE
    ../fplib/microlib/fpflt.c                0x00000000   Number         0  fflti.o ABSOLUTE
    ../fplib/microlib/fpmul.c                0x00000000   Number         0  dmul.o ABSOLUTE
    ../fplib/microlib/fpmul.c                0x00000000   Number         0  fmul.o ABSOLUTE
    ../fplib/microlib/fprem.c                0x00000000   Number         0  drem.o ABSOLUTE
    ../fplib/microlib/fpscalb.c              0x00000000   Number         0  dscalb.o ABSOLUTE
    ../mathlib/atan.c                        0x00000000   Number         0  atan.o ABSOLUTE
    ../mathlib/atan.c                        0x00000000   Number         0  atan_x.o ABSOLUTE
    ../mathlib/atan2.c                       0x00000000   Number         0  atan2.o ABSOLUTE
    ../mathlib/atan2.c                       0x00000000   Number         0  atan2_x.o ABSOLUTE
    ../mathlib/dunder.c                      0x00000000   Number         0  dunder.o ABSOLUTE
    ../mathlib/fmod.c                        0x00000000   Number         0  fmod.o ABSOLUTE
    ../mathlib/fmod.c                        0x00000000   Number         0  fmod_x.o ABSOLUTE
    ../mathlib/fpclassify.c                  0x00000000   Number         0  fpclassify.o ABSOLUTE
    ../mathlib/poly.c                        0x00000000   Number         0  poly.o ABSOLUTE
    ../mathlib/qnan.c                        0x00000000   Number         0  qnan.o ABSOLUTE
    Hardware\delay.c                         0x00000000   Number         0  delay.o ABSOLUTE
    Hardware\iic.c                           0x00000000   Number         0  iic.o ABSOLUTE
    Hardware\spi2.c                          0x00000000   Number         0  spi2.o ABSOLUTE
    Hardware\timer.c                         0x00000000   Number         0  timer.o ABSOLUTE
    Hardware\usart.c                         0x00000000   Number         0  usart.o ABSOLUTE
    SimpleFOC\BLDCMotor.c                    0x00000000   Number         0  bldcmotor.o ABSOLUTE
    SimpleFOC\FOCMotor.c                     0x00000000   Number         0  focmotor.o ABSOLUTE
    SimpleFOC\MagneticSensor.c               0x00000000   Number         0  magneticsensor.o ABSOLUTE
    SimpleFOC\PID.c                          0x00000000   Number         0  pid.o ABSOLUTE
    SimpleFOC\foc_utils.c                    0x00000000   Number         0  foc_utils.o ABSOLUTE
    SimpleFOC\lowpass_filter.c               0x00000000   Number         0  lowpass_filter.o ABSOLUTE
    cdcmple.s                                0x00000000   Number         0  cdcmple.o ABSOLUTE
    cdrcmple.s                               0x00000000   Number         0  cdrcmple.o ABSOLUTE
    cfcmple.s                                0x00000000   Number         0  cfcmple.o ABSOLUTE
    cfrcmple.s                               0x00000000   Number         0  cfrcmple.o ABSOLUTE
    dc.s                                     0x00000000   Number         0  dc.o ABSOLUTE
    handlers.s                               0x00000000   Number         0  handlers.o ABSOLUTE
    init.s                                   0x00000000   Number         0  init.o ABSOLUTE
    lib\src\misc.c                           0x00000000   Number         0  misc.o ABSOLUTE
    lib\src\stm32f10x_adc.c                  0x00000000   Number         0  stm32f10x_adc.o ABSOLUTE
    lib\src\stm32f10x_bkp.c                  0x00000000   Number         0  stm32f10x_bkp.o ABSOLUTE
    lib\src\stm32f10x_can.c                  0x00000000   Number         0  stm32f10x_can.o ABSOLUTE
    lib\src\stm32f10x_cec.c                  0x00000000   Number         0  stm32f10x_cec.o ABSOLUTE
    lib\src\stm32f10x_crc.c                  0x00000000   Number         0  stm32f10x_crc.o ABSOLUTE
    lib\src\stm32f10x_dac.c                  0x00000000   Number         0  stm32f10x_dac.o ABSOLUTE
    lib\src\stm32f10x_dbgmcu.c               0x00000000   Number         0  stm32f10x_dbgmcu.o ABSOLUTE
    lib\src\stm32f10x_dma.c                  0x00000000   Number         0  stm32f10x_dma.o ABSOLUTE
    lib\src\stm32f10x_exti.c                 0x00000000   Number         0  stm32f10x_exti.o ABSOLUTE
    lib\src\stm32f10x_flash.c                0x00000000   Number         0  stm32f10x_flash.o ABSOLUTE
    lib\src\stm32f10x_fsmc.c                 0x00000000   Number         0  stm32f10x_fsmc.o ABSOLUTE
    lib\src\stm32f10x_gpio.c                 0x00000000   Number         0  stm32f10x_gpio.o ABSOLUTE
    lib\src\stm32f10x_i2c.c                  0x00000000   Number         0  stm32f10x_i2c.o ABSOLUTE
    lib\src\stm32f10x_iwdg.c                 0x00000000   Number         0  stm32f10x_iwdg.o ABSOLUTE
    lib\src\stm32f10x_pwr.c                  0x00000000   Number         0  stm32f10x_pwr.o ABSOLUTE
    lib\src\stm32f10x_rcc.c                  0x00000000   Number         0  stm32f10x_rcc.o ABSOLUTE
    lib\src\stm32f10x_rtc.c                  0x00000000   Number         0  stm32f10x_rtc.o ABSOLUTE
    lib\src\stm32f10x_sdio.c                 0x00000000   Number         0  stm32f10x_sdio.o ABSOLUTE
    lib\src\stm32f10x_spi.c                  0x00000000   Number         0  stm32f10x_spi.o ABSOLUTE
    lib\src\stm32f10x_tim.c                  0x00000000   Number         0  stm32f10x_tim.o ABSOLUTE
    lib\src\stm32f10x_usart.c                0x00000000   Number         0  stm32f10x_usart.o ABSOLUTE
    lib\src\stm32f10x_wwdg.c                 0x00000000   Number         0  stm32f10x_wwdg.o ABSOLUTE
    startup\\core_cm3.c                      0x00000000   Number         0  core_cm3.o ABSOLUTE
    startup\core_cm3.c                       0x00000000   Number         0  core_cm3.o ABSOLUTE
    startup\startup_stm32f10x_hd.s           0x00000000   Number         0  startup_stm32f10x_hd.o ABSOLUTE
    startup\system_stm32f10x.c               0x00000000   Number         0  system_stm32f10x.o ABSOLUTE
    user\main.c                              0x00000000   Number         0  main.o ABSOLUTE
    user\stm32f10x_it.c                      0x00000000   Number         0  stm32f10x_it.o ABSOLUTE
    RESET                                    0x08000000   Section      304  startup_stm32f10x_hd.o(RESET)
    .ARM.Collect$$$$00000000                 0x08000130   Section        0  entry.o(.ARM.Collect$$$$00000000)
    .ARM.Collect$$$$00000001                 0x08000130   Section        4  entry2.o(.ARM.Collect$$$$00000001)
    .ARM.Collect$$$$00000004                 0x08000134   Section        4  entry5.o(.ARM.Collect$$$$00000004)
    .ARM.Collect$$$$00000008                 0x08000138   Section        0  entry7b.o(.ARM.Collect$$$$00000008)
    .ARM.Collect$$$$0000000A                 0x08000138   Section        0  entry8b.o(.ARM.Collect$$$$0000000A)
    .ARM.Collect$$$$0000000B                 0x08000138   Section        8  entry9a.o(.ARM.Collect$$$$0000000B)
    .ARM.Collect$$$$0000000D                 0x08000140   Section        0  entry10a.o(.ARM.Collect$$$$0000000D)
    .ARM.Collect$$$$0000000F                 0x08000140   Section        0  entry11a.o(.ARM.Collect$$$$0000000F)
    .ARM.Collect$$$$00002712                 0x08000140   Section        4  entry2.o(.ARM.Collect$$$$00002712)
    __lit__00000000                          0x08000140   Data           4  entry2.o(.ARM.Collect$$$$00002712)
    .text                                    0x08000144   Section       36  startup_stm32f10x_hd.o(.text)
    .text                                    0x08000168   Section        0  fadd.o(.text)
    .text                                    0x08000218   Section        0  fmul.o(.text)
    .text                                    0x0800027c   Section        0  fdiv.o(.text)
    .text                                    0x080002f8   Section        0  dadd.o(.text)
    .text                                    0x08000446   Section        0  dmul.o(.text)
    .text                                    0x0800052a   Section        0  ddiv.o(.text)
    .text                                    0x08000608   Section        0  fflti.o(.text)
    .text                                    0x0800061a   Section        0  ffltui.o(.text)
    .text                                    0x08000624   Section        0  dflti.o(.text)
    .text                                    0x08000646   Section        0  dfltui.o(.text)
    .text                                    0x08000660   Section        0  ffixi.o(.text)
    .text                                    0x08000692   Section        0  ffixui.o(.text)
    .text                                    0x080006ba   Section        0  dfixi.o(.text)
    .text                                    0x080006f8   Section        0  dfixui.o(.text)
    .text                                    0x0800072a   Section        0  f2d.o(.text)
    .text                                    0x08000750   Section       48  cdcmple.o(.text)
    .text                                    0x08000780   Section       48  cdrcmple.o(.text)
    .text                                    0x080007b0   Section        0  d2f.o(.text)
    .text                                    0x080007e8   Section       20  cfcmple.o(.text)
    .text                                    0x080007fc   Section       20  cfrcmple.o(.text)
    .text                                    0x08000810   Section        0  uidiv.o(.text)
    .text                                    0x0800083c   Section        0  uldiv.o(.text)
    .text                                    0x0800089e   Section        0  llshl.o(.text)
    .text                                    0x080008bc   Section        0  llushr.o(.text)
    .text                                    0x080008dc   Section        0  llsshr.o(.text)
    .text                                    0x08000900   Section        0  iusefp.o(.text)
    .text                                    0x08000900   Section        0  fepilogue.o(.text)
    .text                                    0x0800096e   Section        0  depilogue.o(.text)
    .text                                    0x08000a28   Section        0  drem.o(.text)
    .text                                    0x08000aae   Section        0  dfixul.o(.text)
    .text                                    0x08000ae0   Section       36  init.o(.text)
    .text                                    0x08000b04   Section        0  dscalb.o(.text)
    .text                                    0x08000b32   Section        0  __dczerorl2.o(.text)
    i.AS5600_ReadRawAngleTwo                 0x08000b88   Section        0  magneticsensor.o(i.AS5600_ReadRawAngleTwo)
    i.AS5600_ReadRawAngleTwo0                0x08000bcc   Section        0  magneticsensor.o(i.AS5600_ReadRawAngleTwo0)
    i.BusFault_Handler                       0x08000c10   Section        0  stm32f10x_it.o(i.BusFault_Handler)
    i.DebugMon_Handler                       0x08000c14   Section        0  stm32f10x_it.o(i.DebugMon_Handler)
    i.GPIO_Config                            0x08000c18   Section        0  main.o(i.GPIO_Config)
    i.GPIO_Init                              0x08000cf0   Section        0  stm32f10x_gpio.o(i.GPIO_Init)
    i.GPIO_PinRemapConfig                    0x08000e08   Section        0  stm32f10x_gpio.o(i.GPIO_PinRemapConfig)
    i.GPIO_ResetBits                         0x08000e98   Section        0  stm32f10x_gpio.o(i.GPIO_ResetBits)
    i.GPIO_SetBits                           0x08000e9c   Section        0  stm32f10x_gpio.o(i.GPIO_SetBits)
    i.HardFault_Handler                      0x08000ea0   Section        0  stm32f10x_it.o(i.HardFault_Handler)
    i.I2C_getRawCount                        0x08000ea4   Section        0  magneticsensor.o(i.I2C_getRawCount)
    i.I2C_getRawCount0                       0x08000eac   Section        0  magneticsensor.o(i.I2C_getRawCount0)
    i.IIC_Ack                                0x08000eb4   Section        0  magneticsensor.o(i.IIC_Ack)
    i.IIC_Ack0                               0x08000ef0   Section        0  magneticsensor.o(i.IIC_Ack0)
    i.IIC_NAck                               0x08000f24   Section        0  magneticsensor.o(i.IIC_NAck)
    i.IIC_NAck0                              0x08000f60   Section        0  magneticsensor.o(i.IIC_NAck0)
    i.IIC_Read_Byte                          0x08000f94   Section        0  magneticsensor.o(i.IIC_Read_Byte)
    i.IIC_Read_Byte0                         0x08001020   Section        0  magneticsensor.o(i.IIC_Read_Byte0)
    i.IIC_Send_Byte                          0x080010a4   Section        0  magneticsensor.o(i.IIC_Send_Byte)
    i.IIC_Send_Byte0                         0x08001108   Section        0  magneticsensor.o(i.IIC_Send_Byte0)
    i.IIC_Start                              0x08001164   Section        0  magneticsensor.o(i.IIC_Start)
    i.IIC_Start0                             0x080011a0   Section        0  magneticsensor.o(i.IIC_Start0)
    i.IIC_Stop                               0x080011d4   Section        0  magneticsensor.o(i.IIC_Stop)
    i.IIC_Stop0                              0x08001210   Section        0  magneticsensor.o(i.IIC_Stop0)
    i.IIC_Wait_Ack                           0x08001244   Section        0  magneticsensor.o(i.IIC_Wait_Ack)
    i.IIC_Wait_Ack0                          0x080012dc   Section        0  magneticsensor.o(i.IIC_Wait_Ack0)
    i.LPF_velocity                           0x0800136c   Section        0  lowpass_filter.o(i.LPF_velocity)
    i.LPF_velocity0                          0x080013cc   Section        0  lowpass_filter.o(i.LPF_velocity0)
    i.MagneticSensor_Init                    0x0800142c   Section        0  magneticsensor.o(i.MagneticSensor_Init)
    i.MagneticSensor_Init0                   0x0800145c   Section        0  magneticsensor.o(i.MagneticSensor_Init0)
    i.MemManage_Handler                      0x0800148c   Section        0  stm32f10x_it.o(i.MemManage_Handler)
    i.Motor_init                             0x08001490   Section        0  bldcmotor.o(i.Motor_init)
    i.Motor_init0                            0x08001508   Section        0  bldcmotor.o(i.Motor_init0)
    i.Motor_initFOC                          0x08001580   Section        0  bldcmotor.o(i.Motor_initFOC)
    i.Motor_initFOC0                         0x08001604   Section        0  bldcmotor.o(i.Motor_initFOC0)
    i.NMI_Handler                            0x08001688   Section        0  stm32f10x_it.o(i.NMI_Handler)
    i.NVIC_Init                              0x0800168c   Section        0  misc.o(i.NVIC_Init)
    i.PID_angle                              0x080016fc   Section        0  pid.o(i.PID_angle)
    i.PID_angle0                             0x0800180c   Section        0  pid.o(i.PID_angle0)
    i.PID_init                               0x0800191c   Section        0  pid.o(i.PID_init)
    i.PID_init0                              0x080019a0   Section        0  pid.o(i.PID_init0)
    i.PID_velocity                           0x08001a24   Section        0  pid.o(i.PID_velocity)
    i.PID_velocity0                          0x08001c20   Section        0  pid.o(i.PID_velocity0)
    i.PendSV_Handler                         0x08001e1c   Section        0  stm32f10x_it.o(i.PendSV_Handler)
    i.RCC_APB1PeriphClockCmd                 0x08001e20   Section        0  stm32f10x_rcc.o(i.RCC_APB1PeriphClockCmd)
    i.RCC_APB1PeriphResetCmd                 0x08001e40   Section        0  stm32f10x_rcc.o(i.RCC_APB1PeriphResetCmd)
    i.RCC_APB2PeriphClockCmd                 0x08001e60   Section        0  stm32f10x_rcc.o(i.RCC_APB2PeriphClockCmd)
    i.RCC_APB2PeriphResetCmd                 0x08001e80   Section        0  stm32f10x_rcc.o(i.RCC_APB2PeriphResetCmd)
    i.RCC_GetClocksFreq                      0x08001ea0   Section        0  stm32f10x_rcc.o(i.RCC_GetClocksFreq)
    i.SVC_Handler                            0x08001f74   Section        0  stm32f10x_it.o(i.SVC_Handler)
    i.SetSysClock                            0x08001f76   Section        0  system_stm32f10x.o(i.SetSysClock)
    SetSysClock                              0x08001f77   Thumb Code     8  system_stm32f10x.o(i.SetSysClock)
    i.SetSysClockTo72                        0x08001f80   Section        0  system_stm32f10x.o(i.SetSysClockTo72)
    SetSysClockTo72                          0x08001f81   Thumb Code   214  system_stm32f10x.o(i.SetSysClockTo72)
    i.SysTick_Handler                        0x08002060   Section        0  stm32f10x_it.o(i.SysTick_Handler)
    i.SystemInit                             0x08002064   Section        0  system_stm32f10x.o(i.SystemInit)
    i.TIM2_PWM_Init                          0x080020c4   Section        0  timer.o(i.TIM2_PWM_Init)
    i.TIM3_PWM_Init                          0x08002184   Section        0  timer.o(i.TIM3_PWM_Init)
    i.TIM4_1ms_Init                          0x0800225c   Section        0  timer.o(i.TIM4_1ms_Init)
    i.TIM4_IRQHandler                        0x080022b0   Section        0  stm32f10x_it.o(i.TIM4_IRQHandler)
    i.TIM_ARRPreloadConfig                   0x080022e8   Section        0  stm32f10x_tim.o(i.TIM_ARRPreloadConfig)
    i.TIM_ClearITPendingBit                  0x08002300   Section        0  stm32f10x_tim.o(i.TIM_ClearITPendingBit)
    i.TIM_Cmd                                0x08002306   Section        0  stm32f10x_tim.o(i.TIM_Cmd)
    i.TIM_DeInit                             0x08002320   Section        0  stm32f10x_tim.o(i.TIM_DeInit)
    i.TIM_GetITStatus                        0x08002508   Section        0  stm32f10x_tim.o(i.TIM_GetITStatus)
    i.TIM_ITConfig                           0x0800252a   Section        0  stm32f10x_tim.o(i.TIM_ITConfig)
    i.TIM_OC1Init                            0x0800253c   Section        0  stm32f10x_tim.o(i.TIM_OC1Init)
    i.TIM_OC1PreloadConfig                   0x080025d4   Section        0  stm32f10x_tim.o(i.TIM_OC1PreloadConfig)
    i.TIM_OC2Init                            0x080025e8   Section        0  stm32f10x_tim.o(i.TIM_OC2Init)
    i.TIM_OC2PreloadConfig                   0x0800268c   Section        0  stm32f10x_tim.o(i.TIM_OC2PreloadConfig)
    i.TIM_OC3Init                            0x080026a8   Section        0  stm32f10x_tim.o(i.TIM_OC3Init)
    i.TIM_OC3PreloadConfig                   0x08002748   Section        0  stm32f10x_tim.o(i.TIM_OC3PreloadConfig)
    i.TIM_SetCompare1                        0x0800275a   Section        0  stm32f10x_tim.o(i.TIM_SetCompare1)
    i.TIM_SetCompare2                        0x0800275e   Section        0  stm32f10x_tim.o(i.TIM_SetCompare2)
    i.TIM_SetCompare3                        0x08002762   Section        0  stm32f10x_tim.o(i.TIM_SetCompare3)
    i.TIM_TimeBaseInit                       0x08002768   Section        0  stm32f10x_tim.o(i.TIM_TimeBaseInit)
    i.UART4_IRQHandler                       0x0800280c   Section        0  usart.o(i.UART4_IRQHandler)
    i.USART1_IRQHandler                      0x0800288c   Section        0  usart.o(i.USART1_IRQHandler)
    i.USART_Cmd                              0x0800290c   Section        0  stm32f10x_usart.o(i.USART_Cmd)
    i.USART_GetITStatus                      0x08002924   Section        0  stm32f10x_usart.o(i.USART_GetITStatus)
    i.USART_ITConfig                         0x08002978   Section        0  stm32f10x_usart.o(i.USART_ITConfig)
    i.USART_Init                             0x080029c4   Section        0  stm32f10x_usart.o(i.USART_Init)
    i.USART_ReceiveData                      0x08002a9c   Section        0  stm32f10x_usart.o(i.USART_ReceiveData)
    i.UsageFault_Handler                     0x08002aa6   Section        0  stm32f10x_it.o(i.UsageFault_Handler)
    i.__0printf                              0x08002aac   Section        0  printfa.o(i.__0printf)
    i.__ARM_fpclassify                       0x08002acc   Section        0  fpclassify.o(i.__ARM_fpclassify)
    i.__kernel_poly                          0x08002af4   Section        0  poly.o(i.__kernel_poly)
    i.__mathlib_dbl_infnan                   0x08002b9e   Section        0  dunder.o(i.__mathlib_dbl_infnan)
    i.__mathlib_dbl_infnan2                  0x08002ba4   Section        0  dunder.o(i.__mathlib_dbl_infnan2)
    i.__mathlib_dbl_invalid                  0x08002ba8   Section        0  dunder.o(i.__mathlib_dbl_invalid)
    i.__mathlib_dbl_underflow                0x08002bb4   Section        0  dunder.o(i.__mathlib_dbl_underflow)
    i.__scatterload_copy                     0x08002bc4   Section       14  handlers.o(i.__scatterload_copy)
    i.__scatterload_null                     0x08002bd2   Section        2  handlers.o(i.__scatterload_null)
    i.__scatterload_zeroinit                 0x08002bd4   Section       14  handlers.o(i.__scatterload_zeroinit)
    i.__set_errno                            0x08002be4   Section        0  errno.o(i.__set_errno)
    i._electricalAngle                       0x08002bf0   Section        0  foc_utils.o(i._electricalAngle)
    i._fp_digits                             0x08002c08   Section        0  printfa.o(i._fp_digits)
    _fp_digits                               0x08002c09   Thumb Code   366  printfa.o(i._fp_digits)
    i._normalizeAngle                        0x08002d8c   Section        0  foc_utils.o(i._normalizeAngle)
    i._printf_core                           0x08002de0   Section        0  printfa.o(i._printf_core)
    _printf_core                             0x08002de1   Thumb Code  1744  printfa.o(i._printf_core)
    i._printf_post_padding                   0x080034bc   Section        0  printfa.o(i._printf_post_padding)
    _printf_post_padding                     0x080034bd   Thumb Code    36  printfa.o(i._printf_post_padding)
    i._printf_pre_padding                    0x080034e0   Section        0  printfa.o(i._printf_pre_padding)
    _printf_pre_padding                      0x080034e1   Thumb Code    46  printfa.o(i._printf_pre_padding)
    i._sin                                   0x08003510   Section        0  foc_utils.o(i._sin)
    i._sqrtApprox                            0x080037a8   Section        0  foc_utils.o(i._sqrtApprox)
    i.alignSensor                            0x080037c8   Section        0  bldcmotor.o(i.alignSensor)
    i.alignSensor0                           0x08003b4c   Section        0  bldcmotor.o(i.alignSensor0)
    i.angleOpenloop                          0x08003ed0   Section        0  bldcmotor.o(i.angleOpenloop)
    i.angleOpenloop0                         0x08004048   Section        0  bldcmotor.o(i.angleOpenloop0)
    i.atan                                   0x080041c0   Section        0  atan.o(i.atan)
    i.atan2                                  0x080043e0   Section        0  atan2.o(i.atan2)
    i.delay_ms                               0x08004560   Section        0  delay.o(i.delay_ms)
    i.delay_s                                0x080045a8   Section        0  magneticsensor.o(i.delay_s)
    i.delay_s0                               0x080045b4   Section        0  magneticsensor.o(i.delay_s0)
    i.electricalAngle                        0x080045c0   Section        0  focmotor.o(i.electricalAngle)
    i.electricalAngle0                       0x08004608   Section        0  focmotor.o(i.electricalAngle0)
    i.fmod                                   0x08004650   Section        0  fmod.o(i.fmod)
    i.fputc                                  0x080046e4   Section        0  usart.o(i.fputc)
    i.getAngle                               0x08004700   Section        0  magneticsensor.o(i.getAngle)
    i.getAngle0                              0x080047f4   Section        0  magneticsensor.o(i.getAngle0)
    i.getVelocity                            0x080048e8   Section        0  magneticsensor.o(i.getVelocity)
    i.getVelocity0                           0x080049b8   Section        0  magneticsensor.o(i.getVelocity0)
    i.loopFOC                                0x08004a88   Section        0  bldcmotor.o(i.loopFOC)
    i.loopFOC0                               0x08004b18   Section        0  bldcmotor.o(i.loopFOC0)
    i.main                                   0x08004ba8   Section        0  main.o(i.main)
    i.move                                   0x08004cb4   Section        0  bldcmotor.o(i.move)
    i.move0                                  0x08004da4   Section        0  bldcmotor.o(i.move0)
    i.setPhaseVoltage                        0x08004e94   Section        0  bldcmotor.o(i.setPhaseVoltage)
    i.setPhaseVoltage0                       0x080052c0   Section        0  bldcmotor.o(i.setPhaseVoltage0)
    i.shaftAngle                             0x080056ec   Section        0  focmotor.o(i.shaftAngle)
    i.shaftAngle0                            0x0800571c   Section        0  focmotor.o(i.shaftAngle0)
    i.shaftVelocity                          0x0800574c   Section        0  focmotor.o(i.shaftVelocity)
    i.shaftVelocity0                         0x08005770   Section        0  focmotor.o(i.shaftVelocity0)
    i.systick_CountMode                      0x08005794   Section        0  delay.o(i.systick_CountMode)
    i.uart4_init                             0x080057ac   Section        0  usart.o(i.uart4_init)
    i.uart_init                              0x08005854   Section        0  usart.o(i.uart_init)
    i.velocityOpenloop                       0x080058f4   Section        0  bldcmotor.o(i.velocityOpenloop)
    i.velocityOpenloop0                      0x080059ec   Section        0  bldcmotor.o(i.velocityOpenloop0)
    .constdata                               0x08005ae4   Section      800  foc_utils.o(.constdata)
    .constdata                               0x08005e08   Section      152  atan.o(.constdata)
    atanhi                                   0x08005e08   Data          32  atan.o(.constdata)
    atanlo                                   0x08005e28   Data          32  atan.o(.constdata)
    aTodd                                    0x08005e48   Data          40  atan.o(.constdata)
    aTeven                                   0x08005e70   Data          48  atan.o(.constdata)
    .constdata                               0x08005ea0   Section        8  qnan.o(.constdata)
    .data                                    0x20000000   Section       20  stm32f10x_rcc.o(.data)
    APBAHBPrescTable                         0x20000000   Data          16  stm32f10x_rcc.o(.data)
    ADCPrescTable                            0x20000010   Data           4  stm32f10x_rcc.o(.data)
    .data                                    0x20000014   Section        8  usart.o(.data)
    .data                                    0x2000001c   Section      100  focmotor.o(.data)
    .data                                    0x20000080   Section       40  bldcmotor.o(.data)
    .data                                    0x200000a8   Section       88  pid.o(.data)
    .data                                    0x20000100   Section        8  lowpass_filter.o(.data)
    .data                                    0x20000108   Section       40  magneticsensor.o(.data)
    .data                                    0x20000130   Section        8  main.o(.data)
    .data                                    0x20000138   Section        8  stm32f10x_it.o(.data)
    .data                                    0x20000140   Section        4  errno.o(.data)
    _errno                                   0x20000140   Data           4  errno.o(.data)
    .bss                                     0x20000144   Section      512  usart.o(.bss)
    STACK                                    0x20000348   Section     1024  startup_stm32f10x_hd.o(STACK)

    Global Symbols

    Symbol Name                              Value     Ov Type        Size  Object(Section)

    BuildAttributes$$THM_ISAv4$P$D$K$B$S$PE$A:L22UL41UL21$X:L11$S22US41US21$IEEE1$IW$USESV6$~STKCKD$USESV7$~SHL$OTIME$ROPI$IEEEX$EBA8$MICROLIB$REQ8$PRES8$EABIv2 0x00000000   Number         0  anon$$obj.o ABSOLUTE
    __ARM_use_no_argv                        0x00000000   Number         0  main.o ABSOLUTE
    __use_no_errno                           0x00000000   Number         0  useno.o ABSOLUTE
    __use_no_exception_handling              0x00000000   Number         0  useno.o ABSOLUTE
    __use_no_fp                              0x00000000   Number         0  useno.o ABSOLUTE
    __use_no_heap                            0x00000000   Number         0  useno.o ABSOLUTE
    __use_no_heap_region                     0x00000000   Number         0  useno.o ABSOLUTE
    __use_no_semihosting                     0x00000000   Number         0  useno.o ABSOLUTE
    __use_no_semihosting_swi                 0x00000000   Number         0  useno.o ABSOLUTE
    __use_no_signal_handling                 0x00000000   Number         0  useno.o ABSOLUTE
    _printf_a                                0x00000000   Number         0  stubs.o ABSOLUTE
    _printf_c                                0x00000000   Number         0  stubs.o ABSOLUTE
    _printf_charcount                        0x00000000   Number         0  stubs.o ABSOLUTE
    _printf_d                                0x00000000   Number         0  stubs.o ABSOLUTE
    _printf_e                                0x00000000   Number         0  stubs.o ABSOLUTE
    _printf_f                                0x00000000   Number         0  stubs.o ABSOLUTE
    _printf_flags                            0x00000000   Number         0  stubs.o ABSOLUTE
    _printf_fp_dec                           0x00000000   Number         0  stubs.o ABSOLUTE
    _printf_fp_hex                           0x00000000   Number         0  stubs.o ABSOLUTE
    _printf_g                                0x00000000   Number         0  stubs.o ABSOLUTE
    _printf_i                                0x00000000   Number         0  stubs.o ABSOLUTE
    _printf_int_dec                          0x00000000   Number         0  stubs.o ABSOLUTE
    _printf_l                                0x00000000   Number         0  stubs.o ABSOLUTE
    _printf_lc                               0x00000000   Number         0  stubs.o ABSOLUTE
    _printf_ll                               0x00000000   Number         0  stubs.o ABSOLUTE
    _printf_lld                              0x00000000   Number         0  stubs.o ABSOLUTE
    _printf_lli                              0x00000000   Number         0  stubs.o ABSOLUTE
    _printf_llo                              0x00000000   Number         0  stubs.o ABSOLUTE
    _printf_llu                              0x00000000   Number         0  stubs.o ABSOLUTE
    _printf_llx                              0x00000000   Number         0  stubs.o ABSOLUTE
    _printf_longlong_dec                     0x00000000   Number         0  stubs.o ABSOLUTE
    _printf_longlong_hex                     0x00000000   Number         0  stubs.o ABSOLUTE
    _printf_longlong_oct                     0x00000000   Number         0  stubs.o ABSOLUTE
    _printf_ls                               0x00000000   Number         0  stubs.o ABSOLUTE
    _printf_mbtowc                           0x00000000   Number         0  stubs.o ABSOLUTE
    _printf_n                                0x00000000   Number         0  stubs.o ABSOLUTE
    _printf_o                                0x00000000   Number         0  stubs.o ABSOLUTE
    _printf_p                                0x00000000   Number         0  stubs.o ABSOLUTE
    _printf_percent                          0x00000000   Number         0  stubs.o ABSOLUTE
    _printf_pre_padding                      0x00000000   Number         0  stubs.o ABSOLUTE
    _printf_return_value                     0x00000000   Number         0  stubs.o ABSOLUTE
    _printf_s                                0x00000000   Number         0  stubs.o ABSOLUTE
    _printf_sizespec                         0x00000000   Number         0  stubs.o ABSOLUTE
    _printf_str                              0x00000000   Number         0  stubs.o ABSOLUTE
    _printf_truncate_signed                  0x00000000   Number         0  stubs.o ABSOLUTE
    _printf_truncate_unsigned                0x00000000   Number         0  stubs.o ABSOLUTE
    _printf_u                                0x00000000   Number         0  stubs.o ABSOLUTE
    _printf_wc                               0x00000000   Number         0  stubs.o ABSOLUTE
    _printf_wctomb                           0x00000000   Number         0  stubs.o ABSOLUTE
    _printf_widthprec                        0x00000000   Number         0  stubs.o ABSOLUTE
    _printf_x                                0x00000000   Number         0  stubs.o ABSOLUTE
    __cpp_initialize__aeabi_                  - Undefined Weak Reference
    __cxa_finalize                            - Undefined Weak Reference
    _clock_init                               - Undefined Weak Reference
    _microlib_exit                            - Undefined Weak Reference
    __Vectors_Size                           0x00000130   Number         0  startup_stm32f10x_hd.o ABSOLUTE
    __Vectors                                0x08000000   Data           4  startup_stm32f10x_hd.o(RESET)
    __Vectors_End                            0x08000130   Data           0  startup_stm32f10x_hd.o(RESET)
    __main                                   0x08000131   Thumb Code     0  entry.o(.ARM.Collect$$$$00000000)
    _main_stk                                0x08000131   Thumb Code     0  entry2.o(.ARM.Collect$$$$00000001)
    _main_scatterload                        0x08000135   Thumb Code     0  entry5.o(.ARM.Collect$$$$00000004)
    __main_after_scatterload                 0x08000139   Thumb Code     0  entry5.o(.ARM.Collect$$$$00000004)
    _main_clock                              0x08000139   Thumb Code     0  entry7b.o(.ARM.Collect$$$$00000008)
    _main_cpp_init                           0x08000139   Thumb Code     0  entry8b.o(.ARM.Collect$$$$0000000A)
    _main_init                               0x08000139   Thumb Code     0  entry9a.o(.ARM.Collect$$$$0000000B)
    __rt_final_cpp                           0x08000141   Thumb Code     0  entry10a.o(.ARM.Collect$$$$0000000D)
    __rt_final_exit                          0x08000141   Thumb Code     0  entry11a.o(.ARM.Collect$$$$0000000F)
    Reset_Handler                            0x08000145   Thumb Code     8  startup_stm32f10x_hd.o(.text)
    ADC1_2_IRQHandler                        0x0800015f   Thumb Code     0  startup_stm32f10x_hd.o(.text)
    ADC3_IRQHandler                          0x0800015f   Thumb Code     0  startup_stm32f10x_hd.o(.text)
    CAN1_RX1_IRQHandler                      0x0800015f   Thumb Code     0  startup_stm32f10x_hd.o(.text)
    CAN1_SCE_IRQHandler                      0x0800015f   Thumb Code     0  startup_stm32f10x_hd.o(.text)
    DMA1_Channel1_IRQHandler                 0x0800015f   Thumb Code     0  startup_stm32f10x_hd.o(.text)
    DMA1_Channel2_IRQHandler                 0x0800015f   Thumb Code     0  startup_stm32f10x_hd.o(.text)
    DMA1_Channel3_IRQHandler                 0x0800015f   Thumb Code     0  startup_stm32f10x_hd.o(.text)
    DMA1_Channel4_IRQHandler                 0x0800015f   Thumb Code     0  startup_stm32f10x_hd.o(.text)
    DMA1_Channel5_IRQHandler                 0x0800015f   Thumb Code     0  startup_stm32f10x_hd.o(.text)
    DMA1_Channel6_IRQHandler                 0x0800015f   Thumb Code     0  startup_stm32f10x_hd.o(.text)
    DMA1_Channel7_IRQHandler                 0x0800015f   Thumb Code     0  startup_stm32f10x_hd.o(.text)
    DMA2_Channel1_IRQHandler                 0x0800015f   Thumb Code     0  startup_stm32f10x_hd.o(.text)
    DMA2_Channel2_IRQHandler                 0x0800015f   Thumb Code     0  startup_stm32f10x_hd.o(.text)
    DMA2_Channel3_IRQHandler                 0x0800015f   Thumb Code     0  startup_stm32f10x_hd.o(.text)
    DMA2_Channel4_5_IRQHandler               0x0800015f   Thumb Code     0  startup_stm32f10x_hd.o(.text)
    EXTI0_IRQHandler                         0x0800015f   Thumb Code     0  startup_stm32f10x_hd.o(.text)
    EXTI15_10_IRQHandler                     0x0800015f   Thumb Code     0  startup_stm32f10x_hd.o(.text)
    EXTI1_IRQHandler                         0x0800015f   Thumb Code     0  startup_stm32f10x_hd.o(.text)
    EXTI2_IRQHandler                         0x0800015f   Thumb Code     0  startup_stm32f10x_hd.o(.text)
    EXTI3_IRQHandler                         0x0800015f   Thumb Code     0  startup_stm32f10x_hd.o(.text)
    EXTI4_IRQHandler                         0x0800015f   Thumb Code     0  startup_stm32f10x_hd.o(.text)
    EXTI9_5_IRQHandler                       0x0800015f   Thumb Code     0  startup_stm32f10x_hd.o(.text)
    FLASH_IRQHandler                         0x0800015f   Thumb Code     0  startup_stm32f10x_hd.o(.text)
    FSMC_IRQHandler                          0x0800015f   Thumb Code     0  startup_stm32f10x_hd.o(.text)
    I2C1_ER_IRQHandler                       0x0800015f   Thumb Code     0  startup_stm32f10x_hd.o(.text)
    I2C1_EV_IRQHandler                       0x0800015f   Thumb Code     0  startup_stm32f10x_hd.o(.text)
    I2C2_ER_IRQHandler                       0x0800015f   Thumb Code     0  startup_stm32f10x_hd.o(.text)
    I2C2_EV_IRQHandler                       0x0800015f   Thumb Code     0  startup_stm32f10x_hd.o(.text)
    PVD_IRQHandler                           0x0800015f   Thumb Code     0  startup_stm32f10x_hd.o(.text)
    RCC_IRQHandler                           0x0800015f   Thumb Code     0  startup_stm32f10x_hd.o(.text)
    RTCAlarm_IRQHandler                      0x0800015f   Thumb Code     0  startup_stm32f10x_hd.o(.text)
    RTC_IRQHandler                           0x0800015f   Thumb Code     0  startup_stm32f10x_hd.o(.text)
    SDIO_IRQHandler                          0x0800015f   Thumb Code     0  startup_stm32f10x_hd.o(.text)
    SPI1_IRQHandler                          0x0800015f   Thumb Code     0  startup_stm32f10x_hd.o(.text)
    SPI2_IRQHandler                          0x0800015f   Thumb Code     0  startup_stm32f10x_hd.o(.text)
    SPI3_IRQHandler                          0x0800015f   Thumb Code     0  startup_stm32f10x_hd.o(.text)
    TAMPER_IRQHandler                        0x0800015f   Thumb Code     0  startup_stm32f10x_hd.o(.text)
    TIM1_BRK_IRQHandler                      0x0800015f   Thumb Code     0  startup_stm32f10x_hd.o(.text)
    TIM1_CC_IRQHandler                       0x0800015f   Thumb Code     0  startup_stm32f10x_hd.o(.text)
    TIM1_TRG_COM_IRQHandler                  0x0800015f   Thumb Code     0  startup_stm32f10x_hd.o(.text)
    TIM1_UP_IRQHandler                       0x0800015f   Thumb Code     0  startup_stm32f10x_hd.o(.text)
    TIM2_IRQHandler                          0x0800015f   Thumb Code     0  startup_stm32f10x_hd.o(.text)
    TIM3_IRQHandler                          0x0800015f   Thumb Code     0  startup_stm32f10x_hd.o(.text)
    TIM5_IRQHandler                          0x0800015f   Thumb Code     0  startup_stm32f10x_hd.o(.text)
    TIM6_IRQHandler                          0x0800015f   Thumb Code     0  startup_stm32f10x_hd.o(.text)
    TIM7_IRQHandler                          0x0800015f   Thumb Code     0  startup_stm32f10x_hd.o(.text)
    TIM8_BRK_IRQHandler                      0x0800015f   Thumb Code     0  startup_stm32f10x_hd.o(.text)
    TIM8_CC_IRQHandler                       0x0800015f   Thumb Code     0  startup_stm32f10x_hd.o(.text)
    TIM8_TRG_COM_IRQHandler                  0x0800015f   Thumb Code     0  startup_stm32f10x_hd.o(.text)
    TIM8_UP_IRQHandler                       0x0800015f   Thumb Code     0  startup_stm32f10x_hd.o(.text)
    UART5_IRQHandler                         0x0800015f   Thumb Code     0  startup_stm32f10x_hd.o(.text)
    USART2_IRQHandler                        0x0800015f   Thumb Code     0  startup_stm32f10x_hd.o(.text)
    USART3_IRQHandler                        0x0800015f   Thumb Code     0  startup_stm32f10x_hd.o(.text)
    USBWakeUp_IRQHandler                     0x0800015f   Thumb Code     0  startup_stm32f10x_hd.o(.text)
    USB_HP_CAN1_TX_IRQHandler                0x0800015f   Thumb Code     0  startup_stm32f10x_hd.o(.text)
    USB_LP_CAN1_RX0_IRQHandler               0x0800015f   Thumb Code     0  startup_stm32f10x_hd.o(.text)
    WWDG_IRQHandler                          0x0800015f   Thumb Code     0  startup_stm32f10x_hd.o(.text)
    __aeabi_fadd                             0x08000169   Thumb Code   164  fadd.o(.text)
    __aeabi_fsub                             0x0800020d   Thumb Code     6  fadd.o(.text)
    __aeabi_frsub                            0x08000213   Thumb Code     6  fadd.o(.text)
    __aeabi_fmul                             0x08000219   Thumb Code   100  fmul.o(.text)
    __aeabi_fdiv                             0x0800027d   Thumb Code   124  fdiv.o(.text)
    __aeabi_dadd                             0x080002f9   Thumb Code   322  dadd.o(.text)
    __aeabi_dsub                             0x0800043b   Thumb Code     6  dadd.o(.text)
    __aeabi_drsub                            0x08000441   Thumb Code     6  dadd.o(.text)
    __aeabi_dmul                             0x08000447   Thumb Code   228  dmul.o(.text)
    __aeabi_ddiv                             0x0800052b   Thumb Code   222  ddiv.o(.text)
    __aeabi_i2f                              0x08000609   Thumb Code    18  fflti.o(.text)
    __aeabi_ui2f                             0x0800061b   Thumb Code    10  ffltui.o(.text)
    __aeabi_i2d                              0x08000625   Thumb Code    34  dflti.o(.text)
    __aeabi_ui2d                             0x08000647   Thumb Code    26  dfltui.o(.text)
    __aeabi_f2iz                             0x08000661   Thumb Code    50  ffixi.o(.text)
    __aeabi_f2uiz                            0x08000693   Thumb Code    40  ffixui.o(.text)
    __aeabi_d2iz                             0x080006bb   Thumb Code    62  dfixi.o(.text)
    __aeabi_d2uiz                            0x080006f9   Thumb Code    50  dfixui.o(.text)
    __aeabi_f2d                              0x0800072b   Thumb Code    38  f2d.o(.text)
    __aeabi_cdcmpeq                          0x08000751   Thumb Code     0  cdcmple.o(.text)
    __aeabi_cdcmple                          0x08000751   Thumb Code    48  cdcmple.o(.text)
    __aeabi_cdrcmple                         0x08000781   Thumb Code    48  cdrcmple.o(.text)
    __aeabi_d2f                              0x080007b1   Thumb Code    56  d2f.o(.text)
    __aeabi_cfcmpeq                          0x080007e9   Thumb Code     0  cfcmple.o(.text)
    __aeabi_cfcmple                          0x080007e9   Thumb Code    20  cfcmple.o(.text)
    __aeabi_cfrcmple                         0x080007fd   Thumb Code    20  cfrcmple.o(.text)
    __aeabi_uidiv                            0x08000811   Thumb Code     0  uidiv.o(.text)
    __aeabi_uidivmod                         0x08000811   Thumb Code    44  uidiv.o(.text)
    __aeabi_uldivmod                         0x0800083d   Thumb Code    98  uldiv.o(.text)
    __aeabi_llsl                             0x0800089f   Thumb Code    30  llshl.o(.text)
    _ll_shift_l                              0x0800089f   Thumb Code     0  llshl.o(.text)
    __aeabi_llsr                             0x080008bd   Thumb Code    32  llushr.o(.text)
    _ll_ushift_r                             0x080008bd   Thumb Code     0  llushr.o(.text)
    __aeabi_lasr                             0x080008dd   Thumb Code    36  llsshr.o(.text)
    _ll_sshift_r                             0x080008dd   Thumb Code     0  llsshr.o(.text)
    __I$use$fp                               0x08000901   Thumb Code     0  iusefp.o(.text)
    _float_round                             0x08000901   Thumb Code    18  fepilogue.o(.text)
    _float_epilogue                          0x08000913   Thumb Code    92  fepilogue.o(.text)
    _double_round                            0x0800096f   Thumb Code    30  depilogue.o(.text)
    _double_epilogue                         0x0800098d   Thumb Code   156  depilogue.o(.text)
    _drem                                    0x08000a29   Thumb Code   134  drem.o(.text)
    __aeabi_d2ulz                            0x08000aaf   Thumb Code    48  dfixul.o(.text)
    __scatterload                            0x08000ae1   Thumb Code    28  init.o(.text)
    __scatterload_rt2                        0x08000ae1   Thumb Code     0  init.o(.text)
    __ARM_scalbn                             0x08000b05   Thumb Code    46  dscalb.o(.text)
    scalbn                                   0x08000b05   Thumb Code     0  dscalb.o(.text)
    __decompress                             0x08000b33   Thumb Code     0  __dczerorl2.o(.text)
    __decompress1                            0x08000b33   Thumb Code    86  __dczerorl2.o(.text)
    AS5600_ReadRawAngleTwo                   0x08000b89   Thumb Code    68  magneticsensor.o(i.AS5600_ReadRawAngleTwo)
    AS5600_ReadRawAngleTwo0                  0x08000bcd   Thumb Code    68  magneticsensor.o(i.AS5600_ReadRawAngleTwo0)
    BusFault_Handler                         0x08000c11   Thumb Code     4  stm32f10x_it.o(i.BusFault_Handler)
    DebugMon_Handler                         0x08000c15   Thumb Code     2  stm32f10x_it.o(i.DebugMon_Handler)
    GPIO_Config                              0x08000c19   Thumb Code   198  main.o(i.GPIO_Config)
    GPIO_Init                                0x08000cf1   Thumb Code   278  stm32f10x_gpio.o(i.GPIO_Init)
    GPIO_PinRemapConfig                      0x08000e09   Thumb Code   138  stm32f10x_gpio.o(i.GPIO_PinRemapConfig)
    GPIO_ResetBits                           0x08000e99   Thumb Code     4  stm32f10x_gpio.o(i.GPIO_ResetBits)
    GPIO_SetBits                             0x08000e9d   Thumb Code     4  stm32f10x_gpio.o(i.GPIO_SetBits)
    HardFault_Handler                        0x08000ea1   Thumb Code     4  stm32f10x_it.o(i.HardFault_Handler)
    I2C_getRawCount                          0x08000ea5   Thumb Code     8  magneticsensor.o(i.I2C_getRawCount)
    I2C_getRawCount0                         0x08000ead   Thumb Code     8  magneticsensor.o(i.I2C_getRawCount0)
    IIC_Ack                                  0x08000eb5   Thumb Code    56  magneticsensor.o(i.IIC_Ack)
    IIC_Ack0                                 0x08000ef1   Thumb Code    48  magneticsensor.o(i.IIC_Ack0)
    IIC_NAck                                 0x08000f25   Thumb Code    56  magneticsensor.o(i.IIC_NAck)
    IIC_NAck0                                0x08000f61   Thumb Code    48  magneticsensor.o(i.IIC_NAck0)
    IIC_Read_Byte                            0x08000f95   Thumb Code   134  magneticsensor.o(i.IIC_Read_Byte)
    IIC_Read_Byte0                           0x08001021   Thumb Code   126  magneticsensor.o(i.IIC_Read_Byte0)
    IIC_Send_Byte                            0x080010a5   Thumb Code    96  magneticsensor.o(i.IIC_Send_Byte)
    IIC_Send_Byte0                           0x08001109   Thumb Code    86  magneticsensor.o(i.IIC_Send_Byte0)
    IIC_Start                                0x08001165   Thumb Code    56  magneticsensor.o(i.IIC_Start)
    IIC_Start0                               0x080011a1   Thumb Code    48  magneticsensor.o(i.IIC_Start0)
    IIC_Stop                                 0x080011d5   Thumb Code    56  magneticsensor.o(i.IIC_Stop)
    IIC_Stop0                                0x08001211   Thumb Code    48  magneticsensor.o(i.IIC_Stop0)
    IIC_Wait_Ack                             0x08001245   Thumb Code   146  magneticsensor.o(i.IIC_Wait_Ack)
    IIC_Wait_Ack0                            0x080012dd   Thumb Code   138  magneticsensor.o(i.IIC_Wait_Ack0)
    LPF_velocity                             0x0800136d   Thumb Code    74  lowpass_filter.o(i.LPF_velocity)
    LPF_velocity0                            0x080013cd   Thumb Code    74  lowpass_filter.o(i.LPF_velocity0)
    MagneticSensor_Init                      0x0800142d   Thumb Code    30  magneticsensor.o(i.MagneticSensor_Init)
    MagneticSensor_Init0                     0x0800145d   Thumb Code    30  magneticsensor.o(i.MagneticSensor_Init0)
    MemManage_Handler                        0x0800148d   Thumb Code     4  stm32f10x_it.o(i.MemManage_Handler)
    Motor_init                               0x08001491   Thumb Code    58  bldcmotor.o(i.Motor_init)
    Motor_init0                              0x08001509   Thumb Code    58  bldcmotor.o(i.Motor_init0)
    Motor_initFOC                            0x08001581   Thumb Code    86  bldcmotor.o(i.Motor_initFOC)
    Motor_initFOC0                           0x08001605   Thumb Code    86  bldcmotor.o(i.Motor_initFOC0)
    NMI_Handler                              0x08001689   Thumb Code     2  stm32f10x_it.o(i.NMI_Handler)
    NVIC_Init                                0x0800168d   Thumb Code   100  misc.o(i.NVIC_Init)
    PID_angle                                0x080016fd   Thumb Code   234  pid.o(i.PID_angle)
    PID_angle0                               0x0800180d   Thumb Code   234  pid.o(i.PID_angle0)
    PID_init                                 0x0800191d   Thumb Code    74  pid.o(i.PID_init)
    PID_init0                                0x080019a1   Thumb Code    74  pid.o(i.PID_init0)
    PID_velocity                             0x08001a25   Thumb Code   458  pid.o(i.PID_velocity)
    PID_velocity0                            0x08001c21   Thumb Code   458  pid.o(i.PID_velocity0)
    PendSV_Handler                           0x08001e1d   Thumb Code     2  stm32f10x_it.o(i.PendSV_Handler)
    RCC_APB1PeriphClockCmd                   0x08001e21   Thumb Code    26  stm32f10x_rcc.o(i.RCC_APB1PeriphClockCmd)
    RCC_APB1PeriphResetCmd                   0x08001e41   Thumb Code    26  stm32f10x_rcc.o(i.RCC_APB1PeriphResetCmd)
    RCC_APB2PeriphClockCmd                   0x08001e61   Thumb Code    26  stm32f10x_rcc.o(i.RCC_APB2PeriphClockCmd)
    RCC_APB2PeriphResetCmd                   0x08001e81   Thumb Code    26  stm32f10x_rcc.o(i.RCC_APB2PeriphResetCmd)
    RCC_GetClocksFreq                        0x08001ea1   Thumb Code   192  stm32f10x_rcc.o(i.RCC_GetClocksFreq)
    SVC_Handler                              0x08001f75   Thumb Code     2  stm32f10x_it.o(i.SVC_Handler)
    SysTick_Handler                          0x08002061   Thumb Code     2  stm32f10x_it.o(i.SysTick_Handler)
    SystemInit                               0x08002065   Thumb Code    78  system_stm32f10x.o(i.SystemInit)
    TIM2_PWM_Init                            0x080020c5   Thumb Code   186  timer.o(i.TIM2_PWM_Init)
    TIM3_PWM_Init                            0x08002185   Thumb Code   202  timer.o(i.TIM3_PWM_Init)
    TIM4_1ms_Init                            0x0800225d   Thumb Code    80  timer.o(i.TIM4_1ms_Init)
    TIM4_IRQHandler                          0x080022b1   Thumb Code    44  stm32f10x_it.o(i.TIM4_IRQHandler)
    TIM_ARRPreloadConfig                     0x080022e9   Thumb Code    24  stm32f10x_tim.o(i.TIM_ARRPreloadConfig)
    TIM_ClearITPendingBit                    0x08002301   Thumb Code     6  stm32f10x_tim.o(i.TIM_ClearITPendingBit)
    TIM_Cmd                                  0x08002307   Thumb Code    24  stm32f10x_tim.o(i.TIM_Cmd)
    TIM_DeInit                               0x08002321   Thumb Code   424  stm32f10x_tim.o(i.TIM_DeInit)
    TIM_GetITStatus                          0x08002509   Thumb Code    34  stm32f10x_tim.o(i.TIM_GetITStatus)
    TIM_ITConfig                             0x0800252b   Thumb Code    18  stm32f10x_tim.o(i.TIM_ITConfig)
    TIM_OC1Init                              0x0800253d   Thumb Code   132  stm32f10x_tim.o(i.TIM_OC1Init)
    TIM_OC1PreloadConfig                     0x080025d5   Thumb Code    18  stm32f10x_tim.o(i.TIM_OC1PreloadConfig)
    TIM_OC2Init                              0x080025e9   Thumb Code   154  stm32f10x_tim.o(i.TIM_OC2Init)
    TIM_OC2PreloadConfig                     0x0800268d   Thumb Code    26  stm32f10x_tim.o(i.TIM_OC2PreloadConfig)
    TIM_OC3Init                              0x080026a9   Thumb Code   150  stm32f10x_tim.o(i.TIM_OC3Init)
    TIM_OC3PreloadConfig                     0x08002749   Thumb Code    18  stm32f10x_tim.o(i.TIM_OC3PreloadConfig)
    TIM_SetCompare1                          0x0800275b   Thumb Code     4  stm32f10x_tim.o(i.TIM_SetCompare1)
    TIM_SetCompare2                          0x0800275f   Thumb Code     4  stm32f10x_tim.o(i.TIM_SetCompare2)
    TIM_SetCompare3                          0x08002763   Thumb Code     4  stm32f10x_tim.o(i.TIM_SetCompare3)
    TIM_TimeBaseInit                         0x08002769   Thumb Code   122  stm32f10x_tim.o(i.TIM_TimeBaseInit)
    UART4_IRQHandler                         0x0800280d   Thumb Code   116  usart.o(i.UART4_IRQHandler)
    USART1_IRQHandler                        0x0800288d   Thumb Code   116  usart.o(i.USART1_IRQHandler)
    USART_Cmd                                0x0800290d   Thumb Code    24  stm32f10x_usart.o(i.USART_Cmd)
    USART_GetITStatus                        0x08002925   Thumb Code    84  stm32f10x_usart.o(i.USART_GetITStatus)
    USART_ITConfig                           0x08002979   Thumb Code    74  stm32f10x_usart.o(i.USART_ITConfig)
    USART_Init                               0x080029c5   Thumb Code   210  stm32f10x_usart.o(i.USART_Init)
    USART_ReceiveData                        0x08002a9d   Thumb Code    10  stm32f10x_usart.o(i.USART_ReceiveData)
    UsageFault_Handler                       0x08002aa7   Thumb Code     4  stm32f10x_it.o(i.UsageFault_Handler)
    __0printf                                0x08002aad   Thumb Code    22  printfa.o(i.__0printf)
    __1printf                                0x08002aad   Thumb Code     0  printfa.o(i.__0printf)
    __2printf                                0x08002aad   Thumb Code     0  printfa.o(i.__0printf)
    __c89printf                              0x08002aad   Thumb Code     0  printfa.o(i.__0printf)
    printf                                   0x08002aad   Thumb Code     0  printfa.o(i.__0printf)
    __ARM_fpclassify                         0x08002acd   Thumb Code    40  fpclassify.o(i.__ARM_fpclassify)
    __kernel_poly                            0x08002af5   Thumb Code   170  poly.o(i.__kernel_poly)
    __mathlib_dbl_infnan                     0x08002b9f   Thumb Code     6  dunder.o(i.__mathlib_dbl_infnan)
    __mathlib_dbl_infnan2                    0x08002ba5   Thumb Code     4  dunder.o(i.__mathlib_dbl_infnan2)
    __mathlib_dbl_invalid                    0x08002ba9   Thumb Code    12  dunder.o(i.__mathlib_dbl_invalid)
    __mathlib_dbl_underflow                  0x08002bb5   Thumb Code    10  dunder.o(i.__mathlib_dbl_underflow)
    __scatterload_copy                       0x08002bc5   Thumb Code    14  handlers.o(i.__scatterload_copy)
    __scatterload_null                       0x08002bd3   Thumb Code     2  handlers.o(i.__scatterload_null)
    __scatterload_zeroinit                   0x08002bd5   Thumb Code    14  handlers.o(i.__scatterload_zeroinit)
    __set_errno                              0x08002be5   Thumb Code     6  errno.o(i.__set_errno)
    _electricalAngle                         0x08002bf1   Thumb Code    22  foc_utils.o(i._electricalAngle)
    _normalizeAngle                          0x08002d8d   Thumb Code    74  foc_utils.o(i._normalizeAngle)
    _sin                                     0x08003511   Thumb Code   612  foc_utils.o(i._sin)
    _sqrtApprox                              0x080037a9   Thumb Code    26  foc_utils.o(i._sqrtApprox)
    alignSensor                              0x080037c9   Thumb Code   582  bldcmotor.o(i.alignSensor)
    alignSensor0                             0x08003b4d   Thumb Code   582  bldcmotor.o(i.alignSensor0)
    angleOpenloop                            0x08003ed1   Thumb Code   334  bldcmotor.o(i.angleOpenloop)
    angleOpenloop0                           0x08004049   Thumb Code   334  bldcmotor.o(i.angleOpenloop0)
    atan                                     0x080041c1   Thumb Code   474  atan.o(i.atan)
    atan2                                    0x080043e1   Thumb Code   346  atan2.o(i.atan2)
    delay_ms                                 0x08004561   Thumb Code    72  delay.o(i.delay_ms)
    delay_s                                  0x080045a9   Thumb Code    12  magneticsensor.o(i.delay_s)
    delay_s0                                 0x080045b5   Thumb Code    12  magneticsensor.o(i.delay_s0)
    electricalAngle                          0x080045c1   Thumb Code    56  focmotor.o(i.electricalAngle)
    electricalAngle0                         0x08004609   Thumb Code    56  focmotor.o(i.electricalAngle0)
    fmod                                     0x08004651   Thumb Code   144  fmod.o(i.fmod)
    fputc                                    0x080046e5   Thumb Code    24  usart.o(i.fputc)
    getAngle                                 0x08004701   Thumb Code   212  magneticsensor.o(i.getAngle)
    getAngle0                                0x080047f5   Thumb Code   212  magneticsensor.o(i.getAngle0)
    getVelocity                              0x080048e9   Thumb Code   180  magneticsensor.o(i.getVelocity)
    getVelocity0                             0x080049b9   Thumb Code   180  magneticsensor.o(i.getVelocity0)
    loopFOC                                  0x08004a89   Thumb Code    86  bldcmotor.o(i.loopFOC)
    loopFOC0                                 0x08004b19   Thumb Code    86  bldcmotor.o(i.loopFOC0)
    main                                     0x08004ba9   Thumb Code   198  main.o(i.main)
    move                                     0x08004cb5   Thumb Code   206  bldcmotor.o(i.move)
    move0                                    0x08004da5   Thumb Code   206  bldcmotor.o(i.move0)
    setPhaseVoltage                          0x08004e95   Thumb Code  1006  bldcmotor.o(i.setPhaseVoltage)
    setPhaseVoltage0                         0x080052c1   Thumb Code  1012  bldcmotor.o(i.setPhaseVoltage0)
    shaftAngle                               0x080056ed   Thumb Code    38  focmotor.o(i.shaftAngle)
    shaftAngle0                              0x0800571d   Thumb Code    38  focmotor.o(i.shaftAngle0)
    shaftVelocity                            0x0800574d   Thumb Code    32  focmotor.o(i.shaftVelocity)
    shaftVelocity0                           0x08005771   Thumb Code    32  focmotor.o(i.shaftVelocity0)
    systick_CountMode                        0x08005795   Thumb Code    18  delay.o(i.systick_CountMode)
    uart4_init                               0x080057ad   Thumb Code   158  usart.o(i.uart4_init)
    uart_init                                0x08005855   Thumb Code   152  usart.o(i.uart_init)
    velocityOpenloop                         0x080058f5   Thumb Code   212  bldcmotor.o(i.velocityOpenloop)
    velocityOpenloop0                        0x080059ed   Thumb Code   212  bldcmotor.o(i.velocityOpenloop0)
    sine_array                               0x08005ae4   Data         800  foc_utils.o(.constdata)
    __mathlib_zero                           0x08005ea0   Data           8  qnan.o(.constdata)
    Region$$Table$$Base                      0x08005ea8   Number         0  anon$$obj.o(Region$$Table)
    Region$$Table$$Limit                     0x08005ec8   Number         0  anon$$obj.o(Region$$Table)
    __stdout                                 0x20000014   Data           4  usart.o(.data)
    USART_RX_STA                             0x20000018   Data           2  usart.o(.data)
    USART4_RX_STA                            0x2000001a   Data           2  usart.o(.data)
    shaft_angle0                             0x2000001c   Data           4  focmotor.o(.data)
    shaft_angle                              0x20000020   Data           4  focmotor.o(.data)
    electrical_angle0                        0x20000024   Data           4  focmotor.o(.data)
    electrical_angle                         0x20000028   Data           4  focmotor.o(.data)
    shaft_velocity0                          0x2000002c   Data           4  focmotor.o(.data)
    shaft_velocity                           0x20000030   Data           4  focmotor.o(.data)
    current_sp0                              0x20000034   Data           4  focmotor.o(.data)
    current_sp                               0x20000038   Data           4  focmotor.o(.data)
    shaft_velocity_sp0                       0x2000003c   Data           4  focmotor.o(.data)
    shaft_velocity_sp                        0x20000040   Data           4  focmotor.o(.data)
    shaft_angle_sp0                          0x20000044   Data           4  focmotor.o(.data)
    shaft_angle_sp                           0x20000048   Data           4  focmotor.o(.data)
    voltage0                                 0x2000004c   Data           8  focmotor.o(.data)
    voltage                                  0x20000054   Data           8  focmotor.o(.data)
    current0                                 0x2000005c   Data           8  focmotor.o(.data)
    current                                  0x20000064   Data           8  focmotor.o(.data)
    torque_controller                        0x2000006c   Data           1  focmotor.o(.data)
    controller                               0x2000006d   Data           1  focmotor.o(.data)
    sensor_offset0                           0x20000070   Data           4  focmotor.o(.data)
    sensor_offset                            0x20000074   Data           4  focmotor.o(.data)
    zero_electric_angle0                     0x20000078   Data           4  focmotor.o(.data)
    zero_electric_angle                      0x2000007c   Data           4  focmotor.o(.data)
    sensor_direction0                        0x20000080   Data           4  bldcmotor.o(.data)
    sensor_direction                         0x20000084   Data           4  bldcmotor.o(.data)
    voltage_power_supply                     0x20000088   Data           4  bldcmotor.o(.data)
    voltage_limit                            0x2000008c   Data           4  bldcmotor.o(.data)
    voltage_sensor_align                     0x20000090   Data           4  bldcmotor.o(.data)
    pole_pairs0                              0x20000094   Data           4  bldcmotor.o(.data)
    pole_pairs                               0x20000098   Data           4  bldcmotor.o(.data)
    open_loop_timestamp0                     0x2000009c   Data           4  bldcmotor.o(.data)
    open_loop_timestamp                      0x200000a0   Data           4  bldcmotor.o(.data)
    velocity_limit                           0x200000a4   Data           4  bldcmotor.o(.data)
    pid_vel_P0                               0x200000a8   Data           4  pid.o(.data)
    pid_ang_P0                               0x200000ac   Data           4  pid.o(.data)
    pid_vel_I0                               0x200000b0   Data           4  pid.o(.data)
    pid_ang_D0                               0x200000b4   Data           4  pid.o(.data)
    integral_vel_prev0                       0x200000b8   Data           4  pid.o(.data)
    error_vel_prev0                          0x200000bc   Data           4  pid.o(.data)
    error_ang_prev0                          0x200000c0   Data           4  pid.o(.data)
    output_vel_ramp0                         0x200000c4   Data           4  pid.o(.data)
    output_vel_prev0                         0x200000c8   Data           4  pid.o(.data)
    pid_vel_timestamp0                       0x200000cc   Data           4  pid.o(.data)
    pid_ang_timestamp0                       0x200000d0   Data           4  pid.o(.data)
    pid_vel_P                                0x200000d4   Data           4  pid.o(.data)
    pid_ang_P                                0x200000d8   Data           4  pid.o(.data)
    pid_vel_I                                0x200000dc   Data           4  pid.o(.data)
    pid_ang_D                                0x200000e0   Data           4  pid.o(.data)
    integral_vel_prev                        0x200000e4   Data           4  pid.o(.data)
    error_vel_prev                           0x200000e8   Data           4  pid.o(.data)
    error_ang_prev                           0x200000ec   Data           4  pid.o(.data)
    output_vel_ramp                          0x200000f0   Data           4  pid.o(.data)
    output_vel_prev                          0x200000f4   Data           4  pid.o(.data)
    pid_vel_timestamp                        0x200000f8   Data           4  pid.o(.data)
    pid_ang_timestamp                        0x200000fc   Data           4  pid.o(.data)
    y_vel_prev0                              0x20000100   Data           4  lowpass_filter.o(.data)
    y_vel_prev                               0x20000104   Data           4  lowpass_filter.o(.data)
    cpr0                                     0x20000108   Data           4  magneticsensor.o(.data)
    cpr                                      0x2000010c   Data           4  magneticsensor.o(.data)
    full_rotation_offset0                    0x20000110   Data           4  magneticsensor.o(.data)
    full_rotation_offset                     0x20000114   Data           4  magneticsensor.o(.data)
    angle_data_prev0                         0x20000118   Data           4  magneticsensor.o(.data)
    angle_data_prev                          0x2000011c   Data           4  magneticsensor.o(.data)
    velocity_calc_timestamp0                 0x20000120   Data           4  magneticsensor.o(.data)
    velocity_calc_timestamp                  0x20000124   Data           4  magneticsensor.o(.data)
    angle_prev0                              0x20000128   Data           4  magneticsensor.o(.data)
    angle_prev                               0x2000012c   Data           4  magneticsensor.o(.data)
    target0                                  0x20000130   Data           4  main.o(.data)
    target                                   0x20000134   Data           4  main.o(.data)
    time1_cntr                               0x20000138   Data           4  stm32f10x_it.o(.data)
    time2_cntr                               0x2000013c   Data           4  stm32f10x_it.o(.data)
    USART_RX_BUF                             0x20000144   Data         256  usart.o(.bss)
    USART4_RX_BUF                            0x20000244   Data         256  usart.o(.bss)
    __initial_sp                             0x20000748   Data           0  startup_stm32f10x_hd.o(STACK)



==============================================================================

Memory Map of the image

  Image Entry point : 0x08000131

  Load Region LR_IROM1 (Base: 0x08000000, Size: 0x0000600c, Max: 0x00080000, ABSOLUTE, COMPRESSED[0x00005edc])

    Execution Region ER_IROM1 (Base: 0x08000000, Size: 0x00005ec8, Max: 0x00080000, ABSOLUTE)

    Base Addr    Size         Type   Attr      Idx    E Section Name        Object

    0x08000000   0x00000130   Data   RO          132    RESET               startup_stm32f10x_hd.o
    0x08000130   0x00000000   Code   RO         3887  * .ARM.Collect$$$$00000000  mc_w.l(entry.o)
    0x08000130   0x00000004   Code   RO         4216    .ARM.Collect$$$$00000001  mc_w.l(entry2.o)
    0x08000134   0x00000004   Code   RO         4219    .ARM.Collect$$$$00000004  mc_w.l(entry5.o)
    0x08000138   0x00000000   Code   RO         4221    .ARM.Collect$$$$00000008  mc_w.l(entry7b.o)
    0x08000138   0x00000000   Code   RO         4223    .ARM.Collect$$$$0000000A  mc_w.l(entry8b.o)
    0x08000138   0x00000008   Code   RO         4224    .ARM.Collect$$$$0000000B  mc_w.l(entry9a.o)
    0x08000140   0x00000000   Code   RO         4226    .ARM.Collect$$$$0000000D  mc_w.l(entry10a.o)
    0x08000140   0x00000000   Code   RO         4228    .ARM.Collect$$$$0000000F  mc_w.l(entry11a.o)
    0x08000140   0x00000004   Code   RO         4217    .ARM.Collect$$$$00002712  mc_w.l(entry2.o)
    0x08000144   0x00000024   Code   RO          133    .text               startup_stm32f10x_hd.o
    0x08000168   0x000000b0   Code   RO         4151    .text               mf_w.l(fadd.o)
    0x08000218   0x00000064   Code   RO         4153    .text               mf_w.l(fmul.o)
    0x0800027c   0x0000007c   Code   RO         4155    .text               mf_w.l(fdiv.o)
    0x080002f8   0x0000014e   Code   RO         4157    .text               mf_w.l(dadd.o)
    0x08000446   0x000000e4   Code   RO         4159    .text               mf_w.l(dmul.o)
    0x0800052a   0x000000de   Code   RO         4161    .text               mf_w.l(ddiv.o)
    0x08000608   0x00000012   Code   RO         4163    .text               mf_w.l(fflti.o)
    0x0800061a   0x0000000a   Code   RO         4165    .text               mf_w.l(ffltui.o)
    0x08000624   0x00000022   Code   RO         4167    .text               mf_w.l(dflti.o)
    0x08000646   0x0000001a   Code   RO         4169    .text               mf_w.l(dfltui.o)
    0x08000660   0x00000032   Code   RO         4171    .text               mf_w.l(ffixi.o)
    0x08000692   0x00000028   Code   RO         4173    .text               mf_w.l(ffixui.o)
    0x080006ba   0x0000003e   Code   RO         4175    .text               mf_w.l(dfixi.o)
    0x080006f8   0x00000032   Code   RO         4177    .text               mf_w.l(dfixui.o)
    0x0800072a   0x00000026   Code   RO         4179    .text               mf_w.l(f2d.o)
    0x08000750   0x00000030   Code   RO         4181    .text               mf_w.l(cdcmple.o)
    0x08000780   0x00000030   Code   RO         4183    .text               mf_w.l(cdrcmple.o)
    0x080007b0   0x00000038   Code   RO         4185    .text               mf_w.l(d2f.o)
    0x080007e8   0x00000014   Code   RO         4187    .text               mf_w.l(cfcmple.o)
    0x080007fc   0x00000014   Code   RO         4189    .text               mf_w.l(cfrcmple.o)
    0x08000810   0x0000002c   Code   RO         4230    .text               mc_w.l(uidiv.o)
    0x0800083c   0x00000062   Code   RO         4232    .text               mc_w.l(uldiv.o)
    0x0800089e   0x0000001e   Code   RO         4234    .text               mc_w.l(llshl.o)
    0x080008bc   0x00000020   Code   RO         4236    .text               mc_w.l(llushr.o)
    0x080008dc   0x00000024   Code   RO         4238    .text               mc_w.l(llsshr.o)
    0x08000900   0x00000000   Code   RO         4247    .text               mc_w.l(iusefp.o)
    0x08000900   0x0000006e   Code   RO         4248    .text               mf_w.l(fepilogue.o)
    0x0800096e   0x000000ba   Code   RO         4250    .text               mf_w.l(depilogue.o)
    0x08000a28   0x00000086   Code   RO         4252    .text               mf_w.l(drem.o)
    0x08000aae   0x00000030   Code   RO         4254    .text               mf_w.l(dfixul.o)
    0x08000ade   0x00000002   PAD
    0x08000ae0   0x00000024   Code   RO         4260    .text               mc_w.l(init.o)
    0x08000b04   0x0000002e   Code   RO         4262    .text               mf_w.l(dscalb.o)
    0x08000b32   0x00000056   Code   RO         4272    .text               mc_w.l(__dczerorl2.o)
    0x08000b88   0x00000044   Code   RO         3580    i.AS5600_ReadRawAngleTwo  magneticsensor.o
    0x08000bcc   0x00000044   Code   RO         3581    i.AS5600_ReadRawAngleTwo0  magneticsensor.o
    0x08000c10   0x00000004   Code   RO         3799    i.BusFault_Handler  stm32f10x_it.o
    0x08000c14   0x00000002   Code   RO         3800    i.DebugMon_Handler  stm32f10x_it.o
    0x08000c16   0x00000002   PAD
    0x08000c18   0x000000d8   Code   RO         3764    i.GPIO_Config       main.o
    0x08000cf0   0x00000116   Code   RO         1311    i.GPIO_Init         stm32f10x_gpio.o
    0x08000e06   0x00000002   PAD
    0x08000e08   0x00000090   Code   RO         1313    i.GPIO_PinRemapConfig  stm32f10x_gpio.o
    0x08000e98   0x00000004   Code   RO         1318    i.GPIO_ResetBits    stm32f10x_gpio.o
    0x08000e9c   0x00000004   Code   RO         1319    i.GPIO_SetBits      stm32f10x_gpio.o
    0x08000ea0   0x00000004   Code   RO         3801    i.HardFault_Handler  stm32f10x_it.o
    0x08000ea4   0x00000008   Code   RO         3582    i.I2C_getRawCount   magneticsensor.o
    0x08000eac   0x00000008   Code   RO         3583    i.I2C_getRawCount0  magneticsensor.o
    0x08000eb4   0x0000003c   Code   RO         3584    i.IIC_Ack           magneticsensor.o
    0x08000ef0   0x00000034   Code   RO         3585    i.IIC_Ack0          magneticsensor.o
    0x08000f24   0x0000003c   Code   RO         3586    i.IIC_NAck          magneticsensor.o
    0x08000f60   0x00000034   Code   RO         3587    i.IIC_NAck0         magneticsensor.o
    0x08000f94   0x0000008c   Code   RO         3588    i.IIC_Read_Byte     magneticsensor.o
    0x08001020   0x00000084   Code   RO         3589    i.IIC_Read_Byte0    magneticsensor.o
    0x080010a4   0x00000064   Code   RO         3590    i.IIC_Send_Byte     magneticsensor.o
    0x08001108   0x0000005c   Code   RO         3591    i.IIC_Send_Byte0    magneticsensor.o
    0x08001164   0x0000003c   Code   RO         3592    i.IIC_Start         magneticsensor.o
    0x080011a0   0x00000034   Code   RO         3593    i.IIC_Start0        magneticsensor.o
    0x080011d4   0x0000003c   Code   RO         3594    i.IIC_Stop          magneticsensor.o
    0x08001210   0x00000034   Code   RO         3595    i.IIC_Stop0         magneticsensor.o
    0x08001244   0x00000098   Code   RO         3596    i.IIC_Wait_Ack      magneticsensor.o
    0x080012dc   0x00000090   Code   RO         3597    i.IIC_Wait_Ack0     magneticsensor.o
    0x0800136c   0x00000060   Code   RO         3557    i.LPF_velocity      lowpass_filter.o
    0x080013cc   0x00000060   Code   RO         3558    i.LPF_velocity0     lowpass_filter.o
    0x0800142c   0x00000030   Code   RO         3598    i.MagneticSensor_Init  magneticsensor.o
    0x0800145c   0x00000030   Code   RO         3599    i.MagneticSensor_Init0  magneticsensor.o
    0x0800148c   0x00000004   Code   RO         3802    i.MemManage_Handler  stm32f10x_it.o
    0x08001490   0x00000078   Code   RO         3403    i.Motor_init        bldcmotor.o
    0x08001508   0x00000078   Code   RO         3404    i.Motor_init0       bldcmotor.o
    0x08001580   0x00000084   Code   RO         3405    i.Motor_initFOC     bldcmotor.o
    0x08001604   0x00000084   Code   RO         3406    i.Motor_initFOC0    bldcmotor.o
    0x08001688   0x00000002   Code   RO         3803    i.NMI_Handler       stm32f10x_it.o
    0x0800168a   0x00000002   PAD
    0x0800168c   0x00000070   Code   RO          137    i.NVIC_Init         misc.o
    0x080016fc   0x00000110   Code   RO         3512    i.PID_angle         pid.o
    0x0800180c   0x00000110   Code   RO         3513    i.PID_angle0        pid.o
    0x0800191c   0x00000084   Code   RO         3514    i.PID_init          pid.o
    0x080019a0   0x00000084   Code   RO         3515    i.PID_init0         pid.o
    0x08001a24   0x000001fc   Code   RO         3516    i.PID_velocity      pid.o
    0x08001c20   0x000001fc   Code   RO         3517    i.PID_velocity0     pid.o
    0x08001e1c   0x00000002   Code   RO         3804    i.PendSV_Handler    stm32f10x_it.o
    0x08001e1e   0x00000002   PAD
    0x08001e20   0x00000020   Code   RO         1727    i.RCC_APB1PeriphClockCmd  stm32f10x_rcc.o
    0x08001e40   0x00000020   Code   RO         1728    i.RCC_APB1PeriphResetCmd  stm32f10x_rcc.o
    0x08001e60   0x00000020   Code   RO         1729    i.RCC_APB2PeriphClockCmd  stm32f10x_rcc.o
    0x08001e80   0x00000020   Code   RO         1730    i.RCC_APB2PeriphResetCmd  stm32f10x_rcc.o
    0x08001ea0   0x000000d4   Code   RO         1737    i.RCC_GetClocksFreq  stm32f10x_rcc.o
    0x08001f74   0x00000002   Code   RO         3805    i.SVC_Handler       stm32f10x_it.o
    0x08001f76   0x00000008   Code   RO           17    i.SetSysClock       system_stm32f10x.o
    0x08001f7e   0x00000002   PAD
    0x08001f80   0x000000e0   Code   RO           18    i.SetSysClockTo72   system_stm32f10x.o
    0x08002060   0x00000002   Code   RO         3806    i.SysTick_Handler   stm32f10x_it.o
    0x08002062   0x00000002   PAD
    0x08002064   0x00000060   Code   RO           20    i.SystemInit        system_stm32f10x.o
    0x080020c4   0x000000c0   Code   RO         3127    i.TIM2_PWM_Init     timer.o
    0x08002184   0x000000d8   Code   RO         3128    i.TIM3_PWM_Init     timer.o
    0x0800225c   0x00000054   Code   RO         3129    i.TIM4_1ms_Init     timer.o
    0x080022b0   0x00000038   Code   RO         3807    i.TIM4_IRQHandler   stm32f10x_it.o
    0x080022e8   0x00000018   Code   RO         2349    i.TIM_ARRPreloadConfig  stm32f10x_tim.o
    0x08002300   0x00000006   Code   RO         2356    i.TIM_ClearITPendingBit  stm32f10x_tim.o
    0x08002306   0x00000018   Code   RO         2361    i.TIM_Cmd           stm32f10x_tim.o
    0x0800231e   0x00000002   PAD
    0x08002320   0x000001e8   Code   RO         2366    i.TIM_DeInit        stm32f10x_tim.o
    0x08002508   0x00000022   Code   RO         2382    i.TIM_GetITStatus   stm32f10x_tim.o
    0x0800252a   0x00000012   Code   RO         2386    i.TIM_ITConfig      stm32f10x_tim.o
    0x0800253c   0x00000098   Code   RO         2390    i.TIM_OC1Init       stm32f10x_tim.o
    0x080025d4   0x00000012   Code   RO         2393    i.TIM_OC1PreloadConfig  stm32f10x_tim.o
    0x080025e6   0x00000002   PAD
    0x080025e8   0x000000a4   Code   RO         2395    i.TIM_OC2Init       stm32f10x_tim.o
    0x0800268c   0x0000001a   Code   RO         2398    i.TIM_OC2PreloadConfig  stm32f10x_tim.o
    0x080026a6   0x00000002   PAD
    0x080026a8   0x000000a0   Code   RO         2400    i.TIM_OC3Init       stm32f10x_tim.o
    0x08002748   0x00000012   Code   RO         2403    i.TIM_OC3PreloadConfig  stm32f10x_tim.o
    0x0800275a   0x00000004   Code   RO         2422    i.TIM_SetCompare1   stm32f10x_tim.o
    0x0800275e   0x00000004   Code   RO         2423    i.TIM_SetCompare2   stm32f10x_tim.o
    0x08002762   0x00000004   Code   RO         2424    i.TIM_SetCompare3   stm32f10x_tim.o
    0x08002766   0x00000002   PAD
    0x08002768   0x000000a4   Code   RO         2432    i.TIM_TimeBaseInit  stm32f10x_tim.o
    0x0800280c   0x00000080   Code   RO         3181    i.UART4_IRQHandler  usart.o
    0x0800288c   0x00000080   Code   RO         3182    i.USART1_IRQHandler  usart.o
    0x0800290c   0x00000018   Code   RO         2897    i.USART_Cmd         stm32f10x_usart.o
    0x08002924   0x00000054   Code   RO         2901    i.USART_GetITStatus  stm32f10x_usart.o
    0x08002978   0x0000004a   Code   RO         2903    i.USART_ITConfig    stm32f10x_usart.o
    0x080029c2   0x00000002   PAD
    0x080029c4   0x000000d8   Code   RO         2904    i.USART_Init        stm32f10x_usart.o
    0x08002a9c   0x0000000a   Code   RO         2911    i.USART_ReceiveData  stm32f10x_usart.o
    0x08002aa6   0x00000004   Code   RO         3808    i.UsageFault_Handler  stm32f10x_it.o
    0x08002aaa   0x00000002   PAD
    0x08002aac   0x00000020   Code   RO         4123    i.__0printf         mc_w.l(printfa.o)
    0x08002acc   0x00000028   Code   RO         4256    i.__ARM_fpclassify  m_ws.l(fpclassify.o)
    0x08002af4   0x000000aa   Code   RO         4258    i.__kernel_poly     m_ws.l(poly.o)
    0x08002b9e   0x00000006   Code   RO         4202    i.__mathlib_dbl_infnan  m_ws.l(dunder.o)
    0x08002ba4   0x00000004   Code   RO         4203    i.__mathlib_dbl_infnan2  m_ws.l(dunder.o)
    0x08002ba8   0x0000000c   Code   RO         4204    i.__mathlib_dbl_invalid  m_ws.l(dunder.o)
    0x08002bb4   0x00000010   Code   RO         4207    i.__mathlib_dbl_underflow  m_ws.l(dunder.o)
    0x08002bc4   0x0000000e   Code   RO         4266    i.__scatterload_copy  mc_w.l(handlers.o)
    0x08002bd2   0x00000002   Code   RO         4267    i.__scatterload_null  mc_w.l(handlers.o)
    0x08002bd4   0x0000000e   Code   RO         4268    i.__scatterload_zeroinit  mc_w.l(handlers.o)
    0x08002be2   0x00000002   PAD
    0x08002be4   0x0000000c   Code   RO         4242    i.__set_errno       mc_w.l(errno.o)
    0x08002bf0   0x00000016   Code   RO         3265    i._electricalAngle  foc_utils.o
    0x08002c06   0x00000002   PAD
    0x08002c08   0x00000184   Code   RO         4130    i._fp_digits        mc_w.l(printfa.o)
    0x08002d8c   0x00000054   Code   RO         3266    i._normalizeAngle   foc_utils.o
    0x08002de0   0x000006dc   Code   RO         4131    i._printf_core      mc_w.l(printfa.o)
    0x080034bc   0x00000024   Code   RO         4132    i._printf_post_padding  mc_w.l(printfa.o)
    0x080034e0   0x0000002e   Code   RO         4133    i._printf_pre_padding  mc_w.l(printfa.o)
    0x0800350e   0x00000002   PAD
    0x08003510   0x00000298   Code   RO         3267    i._sin              foc_utils.o
    0x080037a8   0x00000020   Code   RO         3268    i._sqrtApprox       foc_utils.o
    0x080037c8   0x00000384   Code   RO         3407    i.alignSensor       bldcmotor.o
    0x08003b4c   0x00000384   Code   RO         3408    i.alignSensor0      bldcmotor.o
    0x08003ed0   0x00000178   Code   RO         3409    i.angleOpenloop     bldcmotor.o
    0x08004048   0x00000178   Code   RO         3410    i.angleOpenloop0    bldcmotor.o
    0x080041c0   0x00000220   Code   RO         4192    i.atan              m_ws.l(atan.o)
    0x080043e0   0x00000180   Code   RO         3872    i.atan2             m_ws.l(atan2.o)
    0x08004560   0x00000048   Code   RO         3154    i.delay_ms          delay.o
    0x080045a8   0x0000000c   Code   RO         3600    i.delay_s           magneticsensor.o
    0x080045b4   0x0000000c   Code   RO         3601    i.delay_s0          magneticsensor.o
    0x080045c0   0x00000048   Code   RO         3355    i.electricalAngle   focmotor.o
    0x08004608   0x00000048   Code   RO         3356    i.electricalAngle0  focmotor.o
    0x08004650   0x00000094   Code   RO         3880    i.fmod              m_ws.l(fmod.o)
    0x080046e4   0x0000001c   Code   RO         3184    i.fputc             usart.o
    0x08004700   0x000000f4   Code   RO         3602    i.getAngle          magneticsensor.o
    0x080047f4   0x000000f4   Code   RO         3603    i.getAngle0         magneticsensor.o
    0x080048e8   0x000000d0   Code   RO         3604    i.getVelocity       magneticsensor.o
    0x080049b8   0x000000d0   Code   RO         3605    i.getVelocity0      magneticsensor.o
    0x08004a88   0x00000090   Code   RO         3411    i.loopFOC           bldcmotor.o
    0x08004b18   0x00000090   Code   RO         3412    i.loopFOC0          bldcmotor.o
    0x08004ba8   0x0000010c   Code   RO         3765    i.main              main.o
    0x08004cb4   0x000000f0   Code   RO         3413    i.move              bldcmotor.o
    0x08004da4   0x000000f0   Code   RO         3414    i.move0             bldcmotor.o
    0x08004e94   0x0000042c   Code   RO         3415    i.setPhaseVoltage   bldcmotor.o
    0x080052c0   0x0000042c   Code   RO         3416    i.setPhaseVoltage0  bldcmotor.o
    0x080056ec   0x00000030   Code   RO         3357    i.shaftAngle        focmotor.o
    0x0800571c   0x00000030   Code   RO         3358    i.shaftAngle0       focmotor.o
    0x0800574c   0x00000024   Code   RO         3359    i.shaftVelocity     focmotor.o
    0x08005770   0x00000024   Code   RO         3360    i.shaftVelocity0    focmotor.o
    0x08005794   0x00000018   Code   RO         3156    i.systick_CountMode  delay.o
    0x080057ac   0x000000a8   Code   RO         3185    i.uart4_init        usart.o
    0x08005854   0x000000a0   Code   RO         3186    i.uart_init         usart.o
    0x080058f4   0x000000f8   Code   RO         3417    i.velocityOpenloop  bldcmotor.o
    0x080059ec   0x000000f8   Code   RO         3418    i.velocityOpenloop0  bldcmotor.o
    0x08005ae4   0x00000320   Data   RO         3269    .constdata          foc_utils.o
    0x08005e04   0x00000004   PAD
    0x08005e08   0x00000098   Data   RO         4193    .constdata          m_ws.l(atan.o)
    0x08005ea0   0x00000008   Data   RO         4215    .constdata          m_ws.l(qnan.o)
    0x08005ea8   0x00000020   Data   RO         4264    Region$$Table       anon$$obj.o


    Execution Region RW_IRAM1 (Base: 0x20000000, Size: 0x00000748, Max: 0x00010000, ABSOLUTE, COMPRESSED[0x00000014])

    Base Addr    Size         Type   Attr      Idx    E Section Name        Object

    0x20000000   0x00000014   Data   RW         1757    .data               stm32f10x_rcc.o
    0x20000014   0x00000008   Data   RW         3188    .data               usart.o
    0x2000001c   0x00000064   Data   RW         3361    .data               focmotor.o
    0x20000080   0x00000028   Data   RW         3419    .data               bldcmotor.o
    0x200000a8   0x00000058   Data   RW         3518    .data               pid.o
    0x20000100   0x00000008   Data   RW         3559    .data               lowpass_filter.o
    0x20000108   0x00000028   Data   RW         3606    .data               magneticsensor.o
    0x20000130   0x00000008   Data   RW         3766    .data               main.o
    0x20000138   0x00000008   Data   RW         3809    .data               stm32f10x_it.o
    0x20000140   0x00000004   Data   RW         4243    .data               mc_w.l(errno.o)
    0x20000144   0x00000200   Zero   RW         3187    .bss                usart.o
    0x20000344   0x00000004   PAD
    0x20000348   0x00000400   Zero   RW          130    STACK               startup_stm32f10x_hd.o


==============================================================================

Image component sizes


      Code (inc. data)   RO Data    RW Data    ZI Data      Debug   Object Name

      6456       1338          0         40          0      11522   bldcmotor.o
         0          0          0          0          0       4540   core_cm3.o
        96          6          0          0          0        931   delay.o
       802         68        800          0          0       3759   foc_utils.o
       312         60          0        100          0       4398   focmotor.o
       192         44          0          8          0       1352   lowpass_filter.o
      2384        222          0         40          0      13874   magneticsensor.o
       484         88          0          8          0       1302   main.o
       112         12          0          0          0     205620   misc.o
      1824        292          0         88          0       4988   pid.o
        36          8        304          0       1024        776   startup_stm32f10x_hd.o
       430          6          0          0          0       3606   stm32f10x_gpio.o
        82         12          0          8          0       4324   stm32f10x_it.o
       340         44          0         20          0       5232   stm32f10x_rcc.o
      1308        146          0          0          0       9575   stm32f10x_tim.o
       408          6          0          0          0       4686   stm32f10x_usart.o
       328         28          0          0          0      45137   system_stm32f10x.o
       492         24          0          0          0       1804   timer.o
       612         46          0          8        512       4884   usart.o

    ----------------------------------------------------------------------
     16724       2450       1140        320       1540     332310   Object Totals
         0          0         32          0          0          0   (incl. Generated)
        26          0          4          0          4          0   (incl. Padding)

    ----------------------------------------------------------------------

      Code (inc. data)   RO Data    RW Data    ZI Data      Debug   Library Member Name

       544         70        152          0          0        124   atan.o
       384         38          0          0          0        144   atan2.o
        38          6          0          0          0        272   dunder.o
       148          4          0          0          0         88   fmod.o
        40          0          0          0          0         68   fpclassify.o
       170          0          0          0          0         96   poly.o
         0          0          8          0          0          0   qnan.o
        86          0          0          0          0          0   __dczerorl2.o
         0          0          0          0          0          0   entry.o
         0          0          0          0          0          0   entry10a.o
         0          0          0          0          0          0   entry11a.o
         8          4          0          0          0          0   entry2.o
         4          0          0          0          0          0   entry5.o
         0          0          0          0          0          0   entry7b.o
         0          0          0          0          0          0   entry8b.o
         8          4          0          0          0          0   entry9a.o
        12          6          0          4          0         68   errno.o
        30          0          0          0          0          0   handlers.o
        36          8          0          0          0         68   init.o
         0          0          0          0          0          0   iusefp.o
        30          0          0          0          0         68   llshl.o
        36          0          0          0          0         68   llsshr.o
        32          0          0          0          0         68   llushr.o
      2258         90          0          0          0        452   printfa.o
        44          0          0          0          0         80   uidiv.o
        98          0          0          0          0         92   uldiv.o
        48          0          0          0          0         68   cdcmple.o
        48          0          0          0          0         68   cdrcmple.o
        20          0          0          0          0         68   cfcmple.o
        20          0          0          0          0         68   cfrcmple.o
        56          0          0          0          0         88   d2f.o
       334          0          0          0          0        148   dadd.o
       222          0          0          0          0        100   ddiv.o
       186          0          0          0          0        176   depilogue.o
        62          0          0          0          0         80   dfixi.o
        50          0          0          0          0         76   dfixui.o
        48          0          0          0          0         68   dfixul.o
        34          0          0          0          0         76   dflti.o
        26          0          0          0          0         76   dfltui.o
       228          0          0          0          0         96   dmul.o
       134          0          0          0          0         96   drem.o
        46          0          0          0          0         80   dscalb.o
        38          0          0          0          0         68   f2d.o
       176          0          0          0          0        140   fadd.o
       124          0          0          0          0         88   fdiv.o
       110          0          0          0          0        168   fepilogue.o
        50          0          0          0          0         68   ffixi.o
        40          0          0          0          0         68   ffixui.o
        18          0          0          0          0         68   fflti.o
        10          0          0          0          0         68   ffltui.o
       100          0          0          0          0         76   fmul.o

    ----------------------------------------------------------------------
      6240        230        160          4          0       4000   Library Totals
         6          0          0          0          0          0   (incl. Padding)

    ----------------------------------------------------------------------

      Code (inc. data)   RO Data    RW Data    ZI Data      Debug   Library Name

      1324        118        160          0          0        792   m_ws.l
      2682        112          0          4          0        964   mc_w.l
      2228          0          0          0          0       2244   mf_w.l

    ----------------------------------------------------------------------
      6240        230        160          4          0       4000   Library Totals

    ----------------------------------------------------------------------

==============================================================================


      Code (inc. data)   RO Data    RW Data    ZI Data      Debug   

     22964       2680       1300        324       1540     328430   Grand Totals
     22964       2680       1300         20       1540     328430   ELF Image Totals (compressed)
     22964       2680       1300         20          0          0   ROM Totals

==============================================================================

    Total RO  Size (Code + RO Data)                24264 (  23.70kB)
    Total RW  Size (RW Data + ZI Data)              1864 (   1.82kB)
    Total ROM Size (Code + RO Data + RW Data)      24284 (  23.71kB)

==============================================================================

